:100000000C9465000C948D000C948D000C948D0064
:100010000C948D000C948D000C948D000C94321770
:100020000C948D000C948D000C948D000C94190987
:100030000C948D000C948D000C948D000C948D000C
:100040000C9480110C948D000C94DF130C942D14DF
:100050000C948D000C948D000C948D000C948D00EC
:100060000C94900D0C948D000000000024002700DB
:100070002A0000000000250028002B0000000000DE
:1000800023002600290004040404040404040202DA
:100090000202020203030303030301020408102007
:1000A0004080010204081020010204081020000012
:1000B0000007000201000003040600000000000029
:1000C00000000200F0002C0CF61511241FBECFEF2B
:1000D000D4E0DEBFCDBF12E0A0E0B1E0E4EBF9E395
:1000E00002C005900D92AE30B107D9F714E0AEE032
:1000F000B2E001C01D92A532B107E1F710E0CAECF1
:10010000D0E004C02297FE010E949D1CC43CD10790
:10011000C9F70E944C160C94D81C0C940000A0E067
:10012000B0E0E5E9F0E00C94A91CEC01A880B980EE
:10013000CA80DB80A114B104C104D10441F484E27B
:10014000A82E89EDB82E8BE5C82E87E0D82EC601E3
:10015000B5012DE133EF41E050E00E946C1C27EA2D
:1001600031E440E050E00E940C1C7B018C01C60190
:10017000B5012DE133EF41E050E00E946C1CCA0153
:10018000B9012CEE34EF4FEF5FEF0E940C1C6E0DA7
:100190007F1D801F911F97FF04C0615070408040F9
:1001A0009048688379838A839B839B01AC015F7746
:1001B000B901CA01CDB7DEB7EAE00C94C51C0E94B4
:1001C0008F00089585E291E00E948F00089560936A
:1001D00025017093260180932701909328010895AB
:1001E000CF93DF938EE092E06DE10E943F0FCFE36B
:1001F000D2E0CE010E944907239682E0C735D80796
:10020000C1F788E592E00E942E0BDF91CF9108950F
:10021000DF93CF930F92CDB7DEB78EEE93E040E140
:1002200057E260E070E00E94A4168EEE93E0BE01FB
:100230006F5F7F4F41E050E00E94D61604C08EEE03
:1002400093E00E947D158EEE93E00E944C15892B61
:10025000B1F78EEE93E048EE53E060E070E00E946C
:10026000A41681E00F90CF91DF9108951F93CF9353
:10027000DF9310925702E9E2F1E08FEF819391E072
:10028000E133F907D9F71FB7F894C5E3D1E08991B5
:100290000E941B1781E0CB33D807C9F785B1807C5A
:1002A00085B984B1807C84B988B1807C88B987B1F4
:1002B000807C87B98BB183708BB98AB183708AB91E
:1002C0001FBFDF91CF911F9108950F931F93062FAA
:1002D000E5E3F1E0E80FF11D1081812F61E00E945C
:1002E000F812E02FF0E0EE0FFF1FE55CFE4F60819B
:1002F0007181812F20E030E040E050E00E948E17B5
:100300001F910F910895E82FF0E0CF01880F991FFA
:100310008E0F9F1FEB51FE4F6081815C9D4F70E0FF
:1003200044EF51E024EC39E00E949A080895982F98
:1003300081E080935702A92FB0E0FD01E75DFE4FF9
:1003400060836230C9F0633030F4662351F061306D
:1003500009F044C00BC0633049F0643009F03EC07E
:1003600021C0AB5CBE4F8C9162E003C0892F825FDD
:1003700060E00E94F812089588B190E044E09595FD
:1003800087954A95E1F783709070039721F083EE8B
:1003900092E00E94CC0C8EE092E060E042E00E948D
:1003A000FD10089588B190E034E0959587953A95D1
:1003B000E1F783709070039721F083EE92E00E9442
:1003C000CC0C88E592E00E94A90B88E592E00E949F
:1003D000D20B88E592E066E00E94E70B08950F9348
:1003E0001F930EEE13E0C80140E052EC61E070E0B4
:1003F0000E946814C8010E94A61580E00E9476122F
:100400000E94ED191F910F910895EF92FF920F93A3
:100410001F93062F6EEEE62E63E0F62E602F629598
:1004200066956695637070E090E08F709070880FAD
:10043000991F880F991F682B792BC7010E94B61549
:1004400010E00F7310700064C701602F0E94B61592
:100450001F910F91FF90EF900895682F70E06F71DA
:100460007070606A8EEE93E00E94B6150895682F52
:1004700070E0606C8EEE93E00E94B61508954F9286
:100480005F926F927F929F92AF92BF92CF92DF92D4
:10049000EF92FF920F931F93CF93DF937C010E9403
:1004A000D4112091730230917402409175025091E1
:1004B0007602621B730B840B950B00E010E0E616CE
:1004C000F7060807190708F0B3C0992415E6412E6E
:1004D000512C612C712CA92DB0E0FD01E75DFE4F80
:1004E000E081E230E9F1E33030F4EE2359F0E1301D
:1004F00009F08FC00EC0E33009F44FC0E43009F0BA
:1005000088C057C0AB5CBE4F8C910E948B13682F84
:1005100023C0892D0E94761200D000D0AA2797FD13
:10052000A095BA2FEDB7FEB74182528263827482E2
:10053000BC01CD0120E030E040E050E0E12CB4E02F
:10054000FB2E012D112DAA24BB2465010E94A419A4
:100550000F900F900F900F90892D0E94050259C0A7
:100560008EE092E00E94560F8EE092E00E944A0FC9
:10057000682F88E00E9405028EE092E00E944E0FF4
:10058000682F89E00E9405028EE092E00E94520FDF
:10059000682F8AE00E9405023BC0892D0E947612D6
:1005A000682F192F892D0E940502812F0E94370282
:1005B00030C088E592E067E672E049E652E02BE65B
:1005C00032E00DE612E0AFE6EA2EA2E0FA2EF1E705
:1005D000CF2EF2E0DF2E0E94320BC7E6D2E0E8E039
:1005E000FE2E099119918F2D602F0E940502812FF7
:1005F000992787FD9A958F710E942D02812F8295F0
:10060000869587700E943702F394FEE0FF1649F743
:100610009394939487E0891508F05DCF0E94D411DC
:1006200060937302709374028093750290937602C4
:10063000DF91CF911F910F91FF90EF90DF90CF90BE
:10064000BF90AF909F907F906F905F904F90089574
:100650000F931F930EEE13E0C80160E00E94B615E1
:10066000C80166E00E94B615C80162E00E94B61596
:100670001F910F910895EF92FF920F931F93DF93B5
:10068000CF9300D00F92CDB7DEB78C017B018EEEF9
:1006900093E00E944C15181619060CF040C08EEE1F
:1006A00093E0BE016F5F7F4F43E050E00E94D6169B
:1006B0000397ACF129814A81922F940F8B8198176F
:1006C00031F08EEE93E061E80E94B61528C0822FCB
:1006D000992787FD90959C0154E0359527955A956B
:1006E000E1F727703070F801318320838F709070AC
:1006F0009695982F882797958795242F332727FD40
:1007000030952F773070822B932BF7019183808364
:100710008EEE93E060E80E94B61581E001C080E0B3
:100720000F900F900F90CF91DF911F910F91FF903D
:10073000EF9008958F929F92AF92BF92DF92EF92C7
:10074000FF920F931F93DF93CF93CDB7DEB7289718
:100750000FB6F894DEBF0FBECDBFD82E87E08D1543
:1007600008F4AFC0DD2079F10D2D10E048010894A8
:10077000811C911C7E010894E11CF11C5701A00E04
:10078000B11E8EEE93E0B701A4010E94D6160817A1
:1007900019070CF096C0F5012081F70190E08191D6
:1007A000980F8E2F8E198D15D0F3921731F48EEE8F
:1007B00093E060E80E94B61506C08EEE93E061E813
:1007C0000E94B615DECF0E9408018EEE93E060E035
:1007D00071E00E94A11668EC70E080E090E00E9459
:1007E000E21104C08EEE93E00E947D158EEE93E040
:1007F0000E944C15892BB1F7DD2071F58EEE93E048
:1008000067E071E00E94A1168EEE93E08E010F5F0B
:100810001F4FB80147E050E00E94D61607970CF42E
:1008200050C08EEE93E0B80147E050E00E94D6162B
:1008300007970CF446C068EC70E080E090E00E94FE
:10084000E21104C08EEE93E00E947D158EEE93E0DF
:100850000E944C15892BB1F78EEE93E06EE071E0AB
:100860000E94A116BE016F5F7F4FDD2029F48EEE3E
:1008700093E047E050E004C08EEE93E04D2D50E051
:100880000E945B168EEE93E06CE171E00E94A1166F
:1008900068EC70E080E090E00E94E2118EEE93E060
:1008A0006FE171E00E94A11604C08EEE93E00E94F9
:1008B0007D158EEE93E00E944C15892BB1F781E0F7
:1008C00001C080E028960FB6F894DEBF0FBECDBF02
:1008D000CF91DF911F910F91FF90EF90DF90BF902C
:1008E000AF909F908F900895CF92DF92EF92FF92FA
:1008F0000F931F93CF93DF93EB018230910509F49F
:10090000B5C08330910534F4009781F0019709F068
:1009100025C188C08530910509F4D6C0873091057E
:1009200009F418C1039709F019C1B9C072FD11C0CB
:100930008FE392E00E94630782E492E00E946307E3
:1009400002E010E034E0E32EF12C23E0C22ED12CA3
:1009500010C085E492E00E94630788E492E00E9460
:10096000630707E010E098E0E92EF12C85E0C82E3F
:10097000D12CCE01880F892F881F990B91958770F4
:100980009070CF77D07081309105C9F4802F61E0ED
:100990000E94F8128E2D61E00E94F812209719F43F
:1009A000802F61E021C0219709F0D8C0802F60E03E
:1009B0000E9437138E2D61E00E943713CFC0823022
:1009C0009105B9F4802F61E00E94F8128E2D61E04C
:1009D0000E94F812209719F4802F61E0E9CF219747
:1009E00009F0BCC0802F60E00E9437138E2D60E0BC
:1009F000E3CF049709F0B2C0BE01882777FD809548
:100A0000982F0E94F51A23E333E343E250E40E9457
:100A1000A91B0E94C21A9B01AC018C2DB9010E9436
:100A200098129CC07B011F2D1770812F0E9483019B
:100A300080912C02882379F080912D02E82FF0E03C
:100A4000DF01A15DBD4F1C93E95CFD4FC0838F5F4B
:100A500080932D0283C083E0189FC0011124815C24
:100A60009D4F6C2F70E00E94320878C07B01EF2D03
:100A7000E770CB01880F892F881F990B919580FF14
:100A800007C09B012F77622F8E2F0E94650166C0E1
:100A9000F0E0EB5CFE4F80810E941B175FC0ED2FE2
:100AA000F0E0E770F070EB5CFE4F1081812F61E0A9
:100AB0000E94F812CC0FCD2FCC1FDD0BD195CE01AB
:100AC0008170682F812F78CFCB01880F892F881FE5
:100AD000990B91958F70F1F466FD0AC010922D026A
:100AE00081E080932C029B012F7320932E0236C04D
:100AF00010922C028FE292E067E372E040912D02A7
:100B000020912E020E94DB058EEE93E06FE90E9499
:100B1000B61524C0813061F4E4E076956795EA95D6
:100B2000E1F767709E012770822F0E94970116C01F
:100B3000823019F40E94360111C0833031F49B01D8
:100B40002770822F0E949A0309C0843039F40E94D2
:100B5000280304C08EEE93E00E94E614DF91CF914B
:100B60001F910F91FF90EF90DF90CF900895DF934A
:100B7000CF9300D000D0CDB7DEB7CE010196BE0135
:100B80006D5F7F4F0E943B03882331F06B817C8136
:100B900089819A810E94740480915702882321F0F0
:100BA00084E690E00E943F020F900F900F900F900C
:100BB000CF91DF9108952F923F924F925F926F9263
:100BC0007F928F929F92AF92BF92CF92DF92EF92DD
:100BD000FF920F931F93DF93CF93CDB7DEB7E897C4
:100BE0000FB6F894DEBF0FBECDBF9EA78DA71B0129
:100BF0004FA728AB79E0472E512C4C0E5D1E772471
:100C000088249924242F30E038AF2FAB68C0EDA59D
:100C1000FEA5E80DF91D808143E0849FC0011124E9
:100C2000815C9D4F0E94DD07682EF101E80DF91DE2
:100C3000608170E0681B7109882777FD8095982F87
:100C40000E94F51A7B018C0120E030E040E050E08A
:100C50000E94A51B18161CF45701680106C0570115
:100C60006801D7FAD094D7F8D094672D70E0882720
:100C700077FD8095982F0E94F51A9B01AC01C60163
:100C8000B5010E94A51B18168CF4C801B70120E01D
:100C900030E040E050E00E94A51B18161CF4C8018B
:100CA000B7010AC0C801B701905806C0672D70E0AF
:100CB00080E090E00E94F31A0E94C71A762EE1E0CD
:100CC000F0E0EC0FFD1FE80DF91D6082D201ED92FE
:100CD000FD920D931D932D010894811C911CEFA989
:100CE000F8AD8E169F060CF492CF8E01075F1F4F52
:100CF0007801FFA58F2F90E0880F991F880F991F0B
:100D0000E80EF91EA72CBB24CC24DD2413C0C60199
:100D1000B5010E94F31A9B01AC01D8016D917D9140
:100D20008D919C910E945A1AF8016193719381935D
:100D300091938F010E151F0551F751E0852E912CCF
:100D4000272D30E03AAB29AB98A9892F90E0A0E09D
:100D5000B0E08BAB9CABADABBEAB77C0A1E08A166D
:100D6000910431F40E94D41169A77AA78BA79CA79C
:100D700049E0242E312C2C0E3D1EAA24BB24240134
:100D8000662457FC6094762C38C0EDA5FEA5EA0DCC
:100D9000FB1D0081B3E00B9F80011124015C1D4FFE
:100DA000E1E0F0E0EC0FFD1FEA0DFB1D608170E05B
:100DB000882777FD8095982F0E94F51A6B017C019A
:100DC000C301B2010E94F51AF101219131914191C3
:100DD00051911F010E94A91B9B01AC01C701B601E3
:100DE0000E94F6190E94C21A9B01AC01C801B90108
:100DF0000E9432080894A11CB11C2FA938ADA2167C
:100E0000B3061CF280912C02882331F50E94D41184
:100E100029A53AA54BA55CA5621B730B840B950B0A
:100E20002BA93CA94DA95EA96217730784079507F2
:100E300098F40E94B705E6CF0E94D41169A77AA75B
:100E40008BA79CA70894811C911C49A95AA94815F5
:100E500059050CF083CF04C080912C02882361F3E4
:100E6000E8960FB6F894DEBF0FBECDBFCF91DF91ED
:100E70001F910F91FF90EF90DF90CF90BF90AF90B8
:100E80009F908F907F906F905F904F903F902F90AA
:100E90000895FC01809177028C3090F480838F5FFD
:100EA00080937702815090E0FC01EE0FFF1FE80F66
:100EB000F91FE858FD4F8CED95E0928381830895EA
:100EC0008FEF80830895DC018C9190E0FC01EE0FA0
:100ED000FF1FE80FF91FE858FD4F80818F7B80834B
:100EE0008C916CE00E942B1C90E0AC01440F551FCC
:100EF000480F591F440F551F440F551F20E030E085
:100F0000C901840F951FFC01EE0FFF1FE80FF91FA9
:100F1000E858FD4F808186FD05C02F5F3F4F2C3084
:100F2000310571F70895FC0130813C3078F58181FD
:100F3000992787FD909548E850E0481B590B440FCE
:100F4000551F440F551F6417750784F08281992738
:100F500087FD909548E552E0481B590B440F551FFB
:100F6000440F551F641775070CF4AB012FB7F894A5
:100F7000832F90E0FC01EE0FFF1FE80FF91FE858E8
:100F8000FD4F42505040528341832FBF0895FC01D2
:100F900080818F3F19F420E030E00DC090E0FC012B
:100FA000EE0FFF1FE80FF91FE858FD4F2181328136
:100FB0003F712E5F3F4FC9010895AF92BF92CF920C
:100FC000DF92EF92FF920F931F938C010E94C7074D
:100FD00000D000D00196AA2797FDA095BA2FF8015E
:100FE0006181772767FD709528E830E0261B370B75
:100FF000220F331F220F331F442737FD4095542FF4
:101000006281772767FD7095E8E5EE2EE2E0FE2E1F
:10101000E61AF70AEE0CFF1CEE0CFF1C0027F7FC8B
:101020000095102F64EBA62EB12CC12CD12CEDB75E
:10103000FEB7A182B282C382D482BC01CD01AA24B0
:10104000BB2465010E94A4190F900F900F900F9080
:10105000CB011F910F91FF90EF90DF90CF90BF9049
:10106000AF900895AF92BF92CF92DF92EF92FF922E
:101070000F931F93CF93DF93EC019B0182E06032CB
:1010800078070CF048C077FF03C020E030E005C0CF
:10109000653B710514F024EB30E000D000D0B901BD
:1010A000882777FD8095982F2981332727FD309554
:1010B000E8E8AE2EB12CA21AB30AAA0CBB1CAA0CEB
:1010C000BB1CCC24B7FCC094DC2CEA81FF27E7FDD5
:1010D000F09528E532E02E1B3F0B220F331F220F25
:1010E000331F442737FD4095542FEDB7FEB72183BA
:1010F00032834383548320E030E040E050E004EB4F
:10110000E02EF12C012D112D0E94A4199B010F90AE
:101110000F900F900F90CE01B9010E949307DF91BD
:10112000CF911F910F91FF90EF90DF90CF90BF90E4
:10113000AF900895CF92DF92EF92FF921F93CF93DB
:10114000DF93EC01162F7A01690188818C3008F059
:1011500064C0862F61E00E94F812888190E0FC0153
:10116000EE0FFF1FE80FF91FE858FD4F1F73808136
:10117000807C812B808380E292E08E199F0964E05D
:1011800070E00E94371C698380E699E08C199D0904
:1011900064E070E00E94371C6A83A8818A2F6CE0AB
:1011A0000E942B1C682F70E0AB01440F551F460FA7
:1011B000571F440F551F440F551F20E030E0C90151
:1011C000840F951FFC01EE0FFF1FE80FF91FE85871
:1011D000FD4F808186FD15C02F5F3F4F2C303105BC
:1011E00071F724C01092800082E0809381001092F9
:1011F000850010928400B19A80916F008260809384
:101200006F008A2F90E0FC01EE0FFF1FE80FF91F1F
:10121000E858FD4F8081806480838881DF91CF9181
:101220001F91FF90EF90DF90CF900895672BD1F240
:10123000E8CF1F920F920FB60F9211242F933F9376
:101240004F935F936F937F938F939F93AF93BF93CE
:10125000EF93FF9380919C0287FF05C01092850059
:10126000109284002BC020919C02332727FD3095DB
:101270008091770290E02817390704F580919C024D
:10128000992787FD9095FC01EE0FFF1FE80FF91FCE
:10129000E858FD4F808186FF11C080919C029927FC
:1012A00087FD9095FC01EE0FFF1FE80FF91FE8582E
:1012B000FD4F80818F7360E00E94371380919C0204
:1012C0008F5F80939C0220919C02332727FD3095ED
:1012D0008091770290E0281739070CF04EC080917A
:1012E0009C028C300CF049C0209184003091850024
:1012F00080919C02992787FD9095FC01EE0FFF1FBE
:10130000E80FF91FE858FD4F81819281280F391F9E
:10131000309389002093880080919C02992787FD53
:101320009095FC01EE0FFF1FE80FF91FE858FD4FE5
:10133000808186FF2BC080919C02992787FD909524
:10134000FC01EE0FFF1FE80FF91FE858FD4F8081E9
:101350008F7361E00E94371319C080E29EE405C0DC
:1013600080918400909185000496909389008093E9
:1013700088008FEF80939C0209C080918400909137
:101380008500049680529E4440F3EACFFF91EF918E
:10139000BF91AF919F918F917F916F915F914F918D
:1013A0003F912F910F900FBE0F901F901895EF92C5
:1013B000FF920F931F93CF93DF93582F162FE42E96
:1013C000022FF32E83EE92E0652F0E94F20B83EE44
:1013D00092E0612F0E94740C202F3F2DC901EC0177
:1013E00010E006C083EE92E069910E94740C1F5FCA
:1013F0001E15C0F383EE92E00E94B70C90E08823A4
:1014000009F491E0892FDF91CF911F910F91FF9007
:10141000EF900895DF93CF930F92CDB7DEB7498356
:1014200041E09E012F5F3F4F0E94D7090F90CF915F
:10143000DF9108955F926F927F928F929F92AF9209
:10144000BF92CF92DF92EF92FF920F931F93CF93B1
:10145000DF93F82EE62E542E6901580183EE92E0B8
:101460006F2D0E94F20B83EE92E06E2D0E94740CA1
:1014700083EE92E00E94B70C83EE92E06F2D0E9403
:10148000F20B83EE92E06F2D452D0E94C80C0E9456
:10149000D4113B014C01E601780100E010E0CE01DF
:1014A0008C19D82E83EE92E00E94FC0B892B09F454
:1014B00042C0A114B10459F00E94D41166197709F1
:1014C000880999096E157F058007910730F483EE2E
:1014D00092E00E94050C8993E2CF0E94D411661914
:1014E000770988099909950140E050E06217730770
:1014F0008407950758F02D2D332727FD3095852D2E
:1015000090E02817390714F4DD24DA9483EE92E092
:101510000E94B70C8D2DDF91CF911F910F91FF90FD
:10152000EF90DF90CF90BF90AF909F908F907F9083
:101530006F905F900895A114B10441F3CECF0F9343
:101540001F93FA01890141E09F010E941A0A1F912D
:101550000F910895DF92EF92FF920F931F93DF9305
:10156000CF930F92CDB7DEB7E82ED62EF42E122FE2
:101570002091310130913201AE014F5F5F4F0E94E7
:101580009F0A882341F1212F30E04F2D50E04F5F1B
:101590005F4F421B530B81E090E002C0880F991F00
:1015A0001A95E2F70197042E02C0880F991F0A943A
:1015B000E2F7202F30E002C0220F331F4A95E2F7F6
:1015C000482F4095598145238223482B49838E2DEE
:1015D0006D2D0E940A0A0F90CF91DF911F910F91FC
:1015E000FF90EF90DF900895EF92FF920F931F937B
:1015F000DF93CF930F92CDB7DEB7F82EE62E042FF0
:10160000122F2091310130913201AE014F5F5F4FB7
:101610000E949F0A2981112351F081E090E002C0CD
:10162000880F991F0A95E2F7422F482B0AC081E0E4
:1016300090E002C0880F991F0A95E2F7482F409565
:10164000422349838F2D6E2D0E940A0A0F90CF915D
:10165000DF911F910F91FF90EF900895FC0188E6B4
:10166000808308952F923F924F925F926F927F9264
:101670008F929F92AF92BF92CF92DF92EF92FF92A2
:101680000F931F935C014B013A01290118019C0142
:101690002F5F3F4F0091310110913201FC01808199
:1016A0006BE34EE00E941A0AF501918180E02281ED
:1016B00030E0822B932BF40191838083F501938199
:1016C00080E0248130E0822B932BF301918380838F
:1016D000F501958180E0268130E0822B932BF20189
:1016E00091838083F501918580E0228530E0822B13
:1016F000932BF10191838083F501938580E024850C
:1017000030E0822B932BF70191838083F50195853F
:1017100080E0268530E0822B932BF6019183808335
:101720001F910F91FF90EF90DF90CF90BF90AF90FF
:101730009F908F907F906F905F904F903F902F90F1
:101740000895FC01262F80816BE646E00E94F40A92
:101750000895FC0180816BE647E021E00E94F40AD5
:1017600008950F93FC01062F80816BE642E023E091
:101770000E94AA0A0F9108950F93FC01062F808101
:101780006CE144E022E00E94AA0A0F9108950F93B1
:10179000FC01062F80816BE144E022E00E94AA0A4E
:1017A0000F9108950F931F938C0161E00E94B10B7C
:1017B000C80160E00E94C70BC80160E00E94BC0B3A
:1017C000C80160E00E94A10B1F910F9108950F9333
:1017D000FC01062F80816AE142E023E00E94AA0A10
:1017E0000F91089581E08093E2026093BF0210920E
:1017F000E0021092E10208952091BE0230E0809153
:10180000BD02281B3109C90108954091BD02809194
:10181000BE02481718F02FEF3FEF0AC0E42FF0E0A8
:10182000E356FD4F8081282F30E04F5F4093BD028B
:10183000C9010895E091BD028091BE02E81718F039
:10184000EFEFFFEF06C0F0E0E356FD4F8081E82F99
:10185000F0E0CF01089508951092E6021092E5029B
:1018600088EE93E0A0E0B0E08093E7029093E80276
:10187000A093E902B093EA0281EF91E09093E40231
:101880008093E3020895CF92DF92EF92FF920F933D
:101890001F93CF93DF937C016B018A018091E20259
:1018A0008823A1F0C0E0D0E00DC0D701ED91FC91FC
:1018B000D601AC0FBD1F0190F081E02DC7016C91E6
:1018C00009952196C017D10780F304C0CB01642F7E
:1018D0000E94750DC801DF91CF911F910F91FF906C
:1018E000EF90DF90CF900895DF93CF930F92CDB715
:1018F000DEB7FC0169838091E2028823C9F0809100
:10190000E102803238F081E090E09383828320E02E
:1019100030E015C08091E002E82FF0E0E054FD4F88
:10192000998190838F5F8093E0028093E10205C0EC
:10193000CE01019661E00E94750D21E030E0C90101
:101940000F90CF91DF9108950F93062F8091BF02E2
:1019500060EC72E04091E10221E00E94200D1092C3
:10196000E0021092E1021092E2020F91089561E00C
:101970000E94A40C0895413208F040E2862F6DE9E0
:1019800072E00E94D70C1092BD028093BE020895AF
:1019900021E00E94BB0C08951092BD021092BE027D
:1019A0001092E0021092E1020E94210F0895382F58
:1019B000413210F040E042C08091EF028823E1F70D
:1019C00091E09093EF022093F1028FEF80935C03FC
:1019D000109217034150409318034F5F9093F00209
:1019E0008091F002330F832B8093F0028091F202FA
:1019F000813041F41092F2028091F0028093BB009A
:101A000085EC01C085EE8093BC008091EF028130AF
:101A1000E1F380911703841710F44091170320E03D
:101A200030E00AC0FB01E20FF31FD901A950BD4FFE
:101A30008C9180832F5F3F4F2417A0F3842F08954C
:101A40000F931F93582F122F413210F081E04AC09C
:101A50008091EF028823E1F782E08093EF02009308
:101A6000F1028FEF80935C031092170340931803E9
:101A7000A7EFB2E0FB0102C081918D938E2F861BF0
:101A80008417D0F31092F0028091F002550F852B4D
:101A90008093F0028091F202813041F41092F202C0
:101AA0008091F0028093BB0085EC01C085EE8093AD
:101AB000BC00112321F08091EF028230E1F380918C
:101AC0005C038F3F11F480E00DC080915C03803295
:101AD00011F482E007C080915C03803311F084E050
:101AE00001C083E01F910F910895482F613210F0DB
:101AF00081E008958091EF02843011F082E0089532
:101B000060933A03A9E1B3E0842F9C01F90102C07C
:101B100081918D938E2F841B8617D0F380E00895DA
:101B20001F920F920FB60F9211242F933F934F9352
:101B30005F936F937F938F939F93AF93BF93EF9335
:101B4000FF938091B90090E0887F90708036910576
:101B500009F4F2C081369105CCF58832910509F47B
:101B60007BC089329105B4F48031910509F46FC0CE
:101B7000813191053CF4009709F447C1089709F0B9
:101B80004FC165C08831910509F466C0809709F09E
:101B900047C182C08034910509F4A4C08134910505
:101BA00044F48033910509F482C0C89709F038C124
:101BB00089C08035910509F489C08835910509F4FB
:101BC00096C08834910509F02BC1AEC088399105C3
:101BD00009F413C189399105ECF48837910509F4AA
:101BE000ABC0893791054CF48836910509F4A4C03F
:101BF0008037910509F014C19FC08838910509F418
:101C0000FCC08039910509F49DC08038910509F028
:101C100007C198C0803B910509F4C6C0813B91057E
:101C20004CF4803A910509F49FC0883A910509F077
:101C3000F7C0BAC0803C910509F4E3C0883C910527
:101C400009F4DFC0883B910509F0EAC0C2C0809169
:101C5000F0028093BB00CFC09091170380911803CE
:101C6000981768F490911703E92FF0E0E950FD4FC1
:101C700080818093BB009F5F90931703BCC08091CD
:101C8000F102882309F44BC085ED8093BC0080915C
:101C9000BC0084FDFCCFC2C080E280935C0385ED74
:101CA0008093BC008091BC0084FDFCCFB7C080E372
:101CB00080935C0385ED8093BC008091BC0084FD23
:101CC000FCCFACC088E380935C039BC0809117037A
:101CD0009091BB00E82FF0E0E950FD4F90838F5FBB
:101CE00080931703909117038091180382C080910D
:101CF00017039091BB00E82FF0E0E950FD4F90836F
:101D00008F5F809317038091F102882341F085ED66
:101D10008093BC008091BC0084FDFCCF7FC081E03B
:101D20008093F20284EA6EC085ED8093BC008091BE
:101D3000BC0084FDFCCF72C083E08093EF02109260
:101D40005B0359C080915B03803208F056C08091DC
:101D50005B039091BB00E82FF0E0E55CFC4F9083C3
:101D60008F5F80935B0347C080915B03803230F4C8
:101D7000E0915B03F0E0E55CFC4F108285ED809321
:101D8000BC008091BC0084FDFCCF1092EF026091FA
:101D90005B03E091F502F091F6028BE393E070E0D3
:101DA000099510925B032DC084E08093EF0210929E
:101DB000390310923A03E091F302F091F40209958D
:101DC00080913A03882329F481E080933A031092AA
:101DD000190390913903E92FF0E0E75EFC4F808111
:101DE0008093BB009F5F909339039091390380915A
:101DF0003A03981710F485EC01C085E88093BC0085
:101E00000FC085EC8093BC0009C010925C0385ED87
:101E10008093BC008091BC0084FDFCCF1092EF0247
:101E2000FF91EF91BF91AF919F918F917F916F91B2
:101E30005F914F913F912F910F900FBE0F901F9088
:101E400018951092EF0281E08093F1021092F20255
:101E500082E161E00E94371383E161E00E94371361
:101E6000E9EBF0E080818E7F808380818D7F8083AD
:101E700080E28093B80085E48093BC000895FC0163
:101E8000608380EE9EE2A5E6B2E4828F938FA48FFA
:101E9000B58F0895FC01838194810895FC018581AB
:101EA00096810895FC01878190850895EF92FF92B5
:101EB0000F931F93CF93DF93EC0183EE92E0688141
:101EC0000E94F20B83EE92E060E00E94740C83EEBD
:101ED00092E060E00E94A40C68818D85882311F453
:101EE00044E001C047E083EE92E00E94C80C83EE1C
:101EF00092E00E94FC0B892B09F4C5C083EE92E0AE
:101F00000E94050C89838D85882309F461C083EEC6
:101F100092E00E94050C182F83EE92E00E94050CBF
:101F2000312F20E0280F391F3C832B83C90160E447
:101F300070E00E94371C882777FD8095982F0E94BB
:101F4000F51A29853A854B855C850E94A91B6E8709
:101F50007F87888B998B83EE92E00E94050C182F67
:101F600083EE92E00E94050C312F20E0280F391FEC
:101F70003E832D83C90160E470E00E94371C8827EE
:101F800077FD8095982F0E94F51A29853A854B8513
:101F90005C850E94A91B6A8B7B8B8C8B9D8B83EE4F
:101FA00092E00E94050C182F83EE92E00E94050C2F
:101FB000312F20E0280F391F38872F83C90160E4B3
:101FC00070E00E94371C882777FD8095982F4FC0BE
:101FD00083EE92E00E94050C982F80E060E071E0B3
:101FE0000E94371C7C836B8383EE92E00E94050C79
:101FF000982F80E060E071E00E94371C7E836D8343
:1020000083EE92E00E94050C982F80E060E071E082
:102010000E94371C7B0178876F836B817C818827C6
:1020200077FD8095982F0E94F51A29853A854B8572
:102030005C850E94A91B6E877F87888B998B6D8139
:102040007E81882777FD8095982F0E94F51A298533
:102050003A854B855C850E94A91B6A8B7B8B8C8B98
:102060009D8B0027F7FC0095102FC801B7010E9437
:10207000F51A29853A854B855C850E94A91B6E8BD4
:102080007F8B888F998FDF91CF911F910F91FF9058
:10209000EF900895FF920F931F938C01F62E83EE1D
:1020A00092E0F80160810E94F20B83EE92E06F2DC6
:1020B0000E94740C83EE92E060E00E94A40C83EE18
:1020C00092E0F801608141E00E94C80C83EE92E04A
:1020D0000E94FC0B892B11F480E004C083EE92E097
:1020E0000E94050C1F910F91FF9008951F93CF93AD
:1020F000DF93EC0183EE92E068810E94F20B83EEA5
:1021000092E06AE20E94740C83EE92E00E94B70CA7
:1021100083EE92E0688141E00E94C80C83EE92E079
:102120000E94FC0B892B11F410E005C083EE92E0B5
:102130000E94050C182F83EE92E068810E94F20B3A
:1021400083EE92E06AE20E94740C8D85882319F474
:1021500082E090E002C080E090E01160612F70E0CA
:102160006861682B792B83EE92E00E94740C83EEF9
:1021700092E00E94B70CDF91CF911F9108951F93B9
:10218000CF93DF93EC0183EE92E068810E94F20B23
:1021900083EE92E06AE20E94740C83EE92E00E9469
:1021A000B70C83EE92E0688141E00E94C80C83EE98
:1021B00092E00E94FC0B892B11F410E005C083EE25
:1021C00092E00E94050C182F83EE92E068810E9435
:1021D000F20B83EE92E06AE20E94740C612F70E0D1
:1021E0006E7F83EE92E00E94740C83EE92E00E9478
:1021F000B70CDF91CF911F910895CF93DF93EC013E
:102200006D874A83662329F424E237E94FE75CE3CC
:1022100004C024E237E94FE75BE329873A874B871D
:102220005C878A81843029F4CA01B9010E94F619B9
:102230000AC0883061F4CA01B90120E030E040E80A
:1022400050E40E94A91B69877A878B879C87CE01FF
:102250006DE00E944A1083EE92E068810E94F20BCA
:1022600083EE92E06BE20E94740C83EE92E060E4F5
:102270000E94740C83EE92E00E94B70C6AE070E05A
:1022800080E090E00E94E211CE010E94BF1083EE38
:1022900092E068810E94F20B83EE92E061E10E947D
:1022A000740C83EE92E060EC0E94740C83EE92E07A
:1022B0000E94B70C83EE92E068810E94F20B83EEDD
:1022C00092E06EE00E94740C8A81843019F461E01F
:1022D00070E004C0883029F462E070E083EE92E0A0
:1022E00003C083EE92E060E00E94740C83EE92E003
:1022F0000E94B70CCE010E947610DF91CF91089515
:102300001F920F920FB60F9211242F933F934F936A
:102310005F936F937F938F939F93AF93BF9320911E
:1023200061033091620340916303509164037091A3
:102330006503DA01C9010296A11DB11D672F6A5F0D
:102340006D3730F06D57DA01C9010396A11DB11D3B
:10235000609365038093610390936203A09363038A
:10236000B093640380915D0390915E03A0915F033D
:10237000B09160030196A11DB11D80935D03909300
:102380005E03A0935F03B0936003BF91AF919F91F1
:102390008F917F916F915F914F913F912F910F900E
:1023A0000FBE0F901F9018958FB7F894209161037E
:1023B0003091620340916303509164038FBFB90170
:1023C000CA0108959B01AC017FB7F89480915D0329
:1023D00090915E03A0915F03B091600366B5A89BE6
:1023E00005C06F3F19F00196A11DB11D7FBFBA2F27
:1023F000A92F982F8827860F911DA11DB11D63E07D
:10240000880F991FAA1FBB1F6A95D1F7BC012DC069
:10241000FFB7F89480915D0390915E03A0915F03F4
:10242000B0916003E6B5A89B05C0EF3F19F0019697
:10243000A11DB11DFFBFBA2FA92F982F88278E0F7E
:10244000911DA11DB11DE3E0880F991FAA1FBB1F9D
:10245000EA95D1F7861B970B885E9340C8F221500E
:1024600030404040504068517C4F211531054105B6
:10247000510571F60895789484B5826084BD84B561
:10248000816084BD85B5826085BD85B5816085BD6F
:10249000EEE6F0E0808181608083E1E8F0E0108288
:1024A000808182608083808181608083E0E8F0E0C9
:1024B000808181608083E1EBF0E0808184608083B3
:1024C000E0EBF0E0808181608083EAE7F0E08081EA
:1024D000846080838081826080838081816080834A
:1024E0008081806880831092C1000895982F8E307B
:1024F00008F09E509770809133018295880F880F65
:10250000807C892B80937C0080917A00806480930A
:102510007A0080917A0086FDFCCF2091780040916E
:102520007900942F80E030E0282B392BC9010895E1
:102530001F93CF93DF93182FEB0161E00E94F812F5
:10254000209709F44AC0CF3FD10509F449C0E12FD3
:10255000F0E0E255FF4F84918330C1F0843028F4DD
:10256000813051F08230B1F50CC0863019F18730DE
:1025700049F1843079F514C084B5806884BDC7BD45
:1025800033C084B5806284BDC8BD2EC080918000F8
:10259000806880938000D0938900C093880024C015
:1025A00080918000806280938000D0938B00C093E4
:1025B0008A001AC08091B00080688093B000C093F8
:1025C000B30012C08091B00080628093B000C093CD
:1025D000B4000AC0C038D1051CF4812F60E002C0ED
:1025E000812F61E00E943713DF91CF911F910895F1
:1025F000CF93DF93482F50E0CA0186569F4FFC01CE
:1026000034914A575F4FFA018491882369F190E031
:10261000880F991FFC01E859FF4FA591B491FC0167
:10262000EE58FF4FC591D491662351F42FB7F8941B
:102630008C91932F909589238C93888189230BC04B
:10264000623061F42FB7F8948C91932F9095892381
:102650008C938881832B88832FBF06C09FB7F89403
:102660008C91832B8C939FBFDF91CF910895482F3E
:1026700050E0CA0182559F4FFC012491CA01865641
:102680009F4FFC0194914A575F4FFA0134913323D5
:1026900009F440C0222351F1233071F0243028F492
:1026A0002130A1F0223011F514C02630B1F02730CE
:1026B000C1F02430D9F404C0809180008F7703C02A
:1026C000809180008F7D8093800010C084B58F77CB
:1026D00002C084B58F7D84BD09C08091B0008F7722
:1026E00003C08091B0008F7D8093B000E32FF0E0B5
:1026F000EE0FFF1FEE58FF4FA591B4912FB7F8943E
:10270000662321F48C919095892302C08C91892BAA
:102710008C932FBF0895682F70E0CB0182559F4F97
:10272000FC012491CB0186569F4FFC0144916A57CE
:102730007F4FFB019491992319F420E030E03CC0D5
:10274000222351F1233071F0243028F42130A1F0FC
:10275000223011F514C02630B1F02730C1F02430FA
:10276000D9F404C0809180008F7703C080918000ED
:102770008F7D8093800010C084B58F7702C084B5B0
:102780008F7D84BD09C08091B0008F7703C0809198
:10279000B0008F7D8093B000892F90E0880F991F43
:1027A00084589F4FFC01A591B4918C9120E030E0BA
:1027B000842311F021E030E0C901089508951F92AB
:1027C0000F920FB60F9211242F933F934F938F9335
:1027D0009F93EF93FF938091C00082FD1DC04091B5
:1027E000C6002091A6033091A7032F5F3F4F2F73A0
:1027F00030708091A8039091A9032817390771F0D0
:10280000E091A603F091A703EA59FC4F408330936F
:10281000A7032093A60302C08091C600FF91EF9109
:102820009F918F914F913F912F910F900FBE0F90DD
:102830001F901895E091FA03F091FB03E05CFF4FC5
:102840008191919120813181821B930B8F739070C4
:10285000892B11F00E94DE1308951F920F920FB67C
:102860000F9211242F933F938F939F93EF93FF9396
:102870002091EA033091EB038091EC039091ED03FA
:102880002817390731F48091C1008F7D8093C100F2
:1028900014C0E091EC03F091ED03E655FC4F20816C
:1028A0008091EC039091ED0301968F73907090935B
:1028B000ED038093EC032093C600FF91EF919F916D
:1028C0008F913F912F910F900FBE0F901F901895F1
:1028D000AF92BF92DF92EF92FF920F931F93CF932D
:1028E000DF93EC017A018B01DD24D39491E0A92ED2
:1028F000B12CEC89FD89DD2069F0C50108A002C07A
:10290000880F991F0A94E2F7808360E874E88EE1EB
:1029100090E005C0108260E472E48FE090E0A801CE
:1029200097010E944A1C215030404040504056952B
:1029300047953795279580E12030380720F0DD2036
:1029400011F0DD24D6CFE889F9893083EA89FB8943
:10295000208319A2EE89FF89408121E030E0C9017E
:102960000C8C02C0880F991F0A94E2F7482B408311
:10297000EE89FF894081C9010D8C02C0880F991F23
:102980000A94E2F7482B4083EE89FF894081C90110
:102990000E8C02C0880F991F0A94E2F7482B4083DF
:1029A000EE89FF8980810F8C02C0220F331F0A94A9
:1029B000E2F7209528232083DF91CF911F910F917B
:1029C000FF90EF90DF90BF90AF900895CF93DF938B
:1029D000DC011E968D919C911F97EC01C05CDF4F2E
:1029E000FC01EE5BFF4F288139818081918128179E
:1029F0003907C9F75696ED91FC915797408121E030
:102A000030E0C9015C960C905C9702C0880F991F5A
:102A10000A94E2F78095842380835696ED91FC9189
:102A200057974081C9015D960C905D9702C0880F51
:102A3000991F0A94E2F78095842380835696ED913E
:102A4000FC9157974081C9015E960C905E9702C039
:102A5000880F991F0A94E2F7809584238083569605
:102A6000ED91FC91579780815F960C905F9702C023
:102A7000220F331F0A94E2F72095282320831C9607
:102A8000ED91FC911D97EE5BFF4F808191819293B8
:102A90008293DF91CF910895DC011C96ED91FC911A
:102AA0001D97E05CFF4F2191319180819181281B1E
:102AB000390B2F733070C9010895DC011C96ED911C
:102AC000FC911D97E05CFF4F20813181E054F04084
:102AD000DF01AE5BBF4F8D919C911197281739078D
:102AE00019F42FEF3FEF07C08D919C91E80FF91F6C
:102AF0008081282F30E0C9010895DC011C96ED91FA
:102B0000FC911D97E05CFF4F20813181E054F04043
:102B1000DF01AE5BBF4F8D919C911197281739074C
:102B200019F42FEF3FEF10C08D919C911197E80F92
:102B3000F91F20818D919C91119701968F73907050
:102B400011969C938E9330E0C9010895DC01919613
:102B50008C919197882339F05496ED91FC9155977B
:102B6000808186FFF9CF91961C920895CF93DF93D1
:102B7000EC01EE85FF85E05CFF4F20813181E05460
:102B8000F0402F5F3F4F2F733070DF01AE5BBF4FC0
:102B90008D919C91119728173907D1F3E05CFF4F75
:102BA00080819181E054F040E80FF91F6083EE8549
:102BB000FF85E05CFF4F31832083EE89FF89208110
:102BC00081E090E00F8C02C0880F991F0A94E2F711
:102BD000282B208381E089A3EC89FD898081806492
:102BE000808381E090E0DF91CF9108951092F1030E
:102BF0001092F00388EE93E0A0E0B0E08093F2033F
:102C00009093F303A093F403B093F50381E092E073
:102C10009093EF038093EE0386E693E09093FB039B
:102C20008093FA038AEA93E09093FD038093FC0378
:102C300085EC90E09093FF038093FE0384EC90E09A
:102C4000909301048093000480EC90E0909303043F
:102C50008093020481EC90E0909305048093040437
:102C600082EC90E0909307048093060486EC90E059
:102C7000909309048093080484E080930A0483E01D
:102C800080930B0487E080930C0485E080930D040F
:102C900081E080930E040895CF93DF930E943B124E
:102CA0000E94EF01CAE1D4E10E94B7052097E1F349
:102CB0000E941A14F9CFCF92DF92EF92FF920F93F6
:102CC0001F93CF93DF937C016B018A01C0E0D0E0BA
:102CD0000FC0D6016D916D01D701ED91FC9101906E
:102CE000F081E02DC7010995C80FD91F0150104090
:102CF0000115110571F7CE01DF91CF911F910F9151
:102D0000FF90EF90DF90CF900895CF93DF93EC0189
:102D10006115710519F420E030E00FC0DB010D9062
:102D20000020E9F71197A61BB70BE881F981028013
:102D3000F381E02DAD0109959C01C901DF91CF918F
:102D400008950E9485160895FC0144835583668387
:102D500077830895CF93DF93EC010E94D4116887A5
:102D600079878A879B87E881F9810680F781E02D42
:102D7000CE0109959C0197FF15C00E94D4112885AA
:102D800039854A855B85621B730B840B950B2C81FF
:102D90003D814E815F81621773078407950718F3A1
:102DA0002FEF3FEFC901DF91CF910895CF92DF92CE
:102DB000EF92FF920F931F93CF93DF936C018B01E0
:102DC0007A01C0E0D0E009C0C6010E94AA1697FDB2
:102DD00007C0F80181938F012196CE15DF05A0F37E
:102DE000CE01DF91CF911F910F91FF90EF90DF9077
:102DF000CF900895813041F0813018F08230D1F4C5
:102E000009C010926E00089580916F008D7F8093AD
:102E10006F000895809170008D7F8093700081E035
:102E20008093B0008091B100887F84608093B1006E
:102E30001092B30008951F93182F809134018117C9
:102E400011F09FEF06C0E2ECF0E094918FEF8093D9
:102E50003401892F0E94FA16812F60E00E943713F7
:102E60001F9108951F920F920FB60F9211242F9366
:102E70003F934F935F936F937F938F939F93AF9302
:102E8000BF93EF93FF9380911E0490911F04A09134
:102E90002004B09121040097A105B10551F1E09102
:102EA0002204F09123048081909124048927808357
:102EB00080911E0490911F04A0912004B0912104E0
:102EC000181619061A061B06C4F480911E04909168
:102ED0001F04A0912004B09121040197A109B10918
:102EE00080931E0490931F04A0932004B0932104A8
:102EF00004C0809134010E941B17FF91EF91BF9194
:102F0000AF919F918F917F916F915F914F913F9181
:102F10002F910F900FBE0F901F9018952F923F92F8
:102F20005F926F927F928F929F92AF92BF92CF9259
:102F3000DF92EF92FF920F931F93DF93CF9300D016
:102F400000D0CDB7DEB7A82F1B0129833A834B836E
:102F50005C83809134018A1721F4E2ECF0E0549014
:102F600082C08F3F09F0DAC1A0933401E2ECF0E0B7
:102F700054902FEF521609F4D1C181E0581639F15F
:102F800092E0591609F449C0552009F06CC014BCF0
:102F900015BC84B5826084BD85B5816085BD2A2F4E
:102FA00030E0F901EA57FF4FE491F0E0EE0FFF1F28
:102FB000EE58FF4F859194919093150480931404DB
:102FC00026563F4FF9018491809316044EC010920B
:102FD0008000109281008091810088608093810040
:102FE000809181008160809381002A2F30E0F90177
:102FF000EA57FF4FE491F0E0EE0FFF1FEE58FF4F4E
:103000008591949190931C0480931B0426563F4F06
:10301000F901849180931D0428C01092B000109291
:10302000B1008091B00082608093B0008091B100C7
:1030300081608093B1002A2F30E0F901EA57FF4FF9
:10304000E491F0E0EE0FFF1FEE58FF4F8591949151
:10305000909323048093220426563F4FF9018491D4
:103060008093240402C057FC59C18A2F61E00E945A
:10307000F812552021F0F2E05F1609F0BEC03101D0
:103080008824992460E079E08DE390E0A401930125
:103090000E946C1C59016A01860175010894E108BF
:1030A000F108010911092FEFE216F10401051105DC
:1030B00009F008F499C060E271EA87E090E0A401A9
:1030C00093010E946C1C79018A010894E108F108BF
:1030D0000109110982E05816C1F49FEFE916F104C5
:1030E0000105110509F008F484C068E478EE81E078
:1030F00090E0A40193010E946C1C79018A0108945C
:10310000E108F1080109110983E0AFEFEA16F104C3
:103110000105110509F008F468C064E274EF80E06D
:1031200090E0A40193010E946C1C79018A0108942B
:10313000E108F10801091109552011F483E01DC0CF
:10314000B2E05B1611F084E018C0EFEFEE16F10468
:103150000105110509F008F4DFC062E17AE780E0BB
:1031600090E0A40193010E946C1C79018A010894EB
:10317000E108F1080109110985E0FFEFEF16F104FC
:103180000105110591F188F169E07DE380E090E0AF
:10319000A40193010E946C1C79018A010894E10842
:1031A000F10801091109552011F086E001C084E001
:1031B0002FEFE216F10401051105B9F0B0F0C601D8
:1031C000B50120E034E040E050E00E946C1C790141
:1031D0008A010894E108F10801091109552011F04C
:1031E00087E008C085E003C081E0552019F485BD63
:1031F0003AC082E08093B10036C05101CC24DD2476
:1032000060E079E08DE390E0A60195010E946C1CDE
:1032100079018A010894E108F1080109110980E0A7
:10322000E81680E0F80681E0080780E0180710F44F
:1032300091E010C064E274EF80E090E0A601950197
:103240000E946C1C79018A010894E108F1080109C7
:10325000110993E0A1E05A1631F480918100887F32
:10326000982B9093810089819A81AB81BC810097D2
:10327000A105B10529F48FEF9FEFAFEFBFEF13C0AA
:10328000220C331CB10180E090E029813A814B810E
:103290005C810E940C1C28EE33E040E050E00E946C
:1032A0004A1CC901DA01E1E05E16A1F0F2E05F1606
:1032B00019F1552099F5E7BC8093100490931104FF
:1032C000A0931204B093130480916E0082608093E7
:1032D0006E0024C0F0928900E09288008093170469
:1032E00090931804A0931904B0931A0480916F006E
:1032F000826080936F0012C0E092B30080931E043E
:1033000090931F04A0932004B09321048091700037
:1033100082608093700002C084E06CCF0F900F90A9
:103320000F900F90CF91DF911F910F91FF90EF9031
:10333000DF90CF90BF90AF909F908F907F906F90D5
:103340005F903F902F9008952F923F924F925F92FF
:103350006F927F928F929F92AF92BF92CF92DF92A5
:10336000EF92FF920F931F93DF93CF93CDB7DEB70A
:103370003B014C0119012A016D897E898F89988D45
:103380006A197B098C099D09621A730A840A950AD5
:10339000A40193010E940C1CE218F308040915090A
:1033A000A80197010E946C1C2A0D3B1D4C1D5D1D40
:1033B000B901CA01CF91DF911F910F91FF90EF905A
:1033C000DF90CF90BF90AF909F908F907F906F9045
:1033D0005F904F903F902F900895009729F0BC0187
:1033E00080E090E00E94E70008955058BB27AA278C
:1033F0000ED071C162D130F067D120F031F49F3F1F
:1034000011F41EF457C10EF4E095E7FB4DC1E92F0E
:1034100073D180F3BA17620773078407950718F012
:1034200071F49EF58BC10EF4E0950B2EBA2FA02DF2
:103430000B01B90190010C01CA01A0011124FF2761
:10344000591B99F0593F50F4503E68F11A16F0405C
:10345000A22F232F342F4427585FF3CF469537955B
:103460002795A795F0405395C9F77EF41F16BA0B20
:10347000620B730B840BBAF09150A1F0FF0FBB1FCE
:10348000661F771F881FC2F70EC0BA0F621F731F17
:10349000841F48F4879577956795B795F7959E3F74
:1034A00008F0B3CF9395880F08F09927EE0F979502
:1034B000879508950CD00FC107D140F0FED030F0B1
:1034C00021F45F3F19F0F0C0511139C1F3C014D19C
:1034D00098F39923C9F35523B1F3951B550BBB27DB
:1034E000AA2762177307840738F09F5F5F4F220F88
:1034F000331F441FAA1FA9F333D00E2E3AF0E0E881
:1035000030D091505040E695001CCAF729D0FE2FCC
:1035100027D0660F771F881FBB1F2617370748075E
:10352000AB07B0E809F0BB0B802DBF01FF27935814
:103530005F4F2AF09E3F510568F0B6C000C15F3F63
:10354000ECF3983EDCF3869577956795B795F795FC
:103550009F5FC9F7880F911D9695879597F90895F4
:10356000E1E0660F771F881FBB1F62177307840790
:10357000BA0720F0621B730B840BBA0BEE1F88F79F
:10358000E095089504D06894B111D9C00895BCD0D5
:1035900088F09F5790F0B92F9927B751A0F0D1F03C
:1035A000660F771F881F991F1AF0BA95C9F712C0C6
:1035B000B13081F0C3D0B1E00895C0C0672F782F3B
:1035C0008827B85F39F0B93FCCF386957795679532
:1035D000B395D9F73EF490958095709561957F4F9E
:1035E0008F4F9F4F0895E89409C097FB3EF4909544
:1035F0008095709561957F4F8F4F9F4F9923A9F0CC
:10360000F92F96E9BB279395F6958795779567955A
:10361000B795F111F8CFFAF4BB0F11F460FF1BC09E
:103620006F5F7F4F8F4F9F4F16C0882311F096E931
:1036300011C0772321F09EE8872F762F05C06623DF
:1036400071F096E8862F70E060E02AF09A95660F98
:10365000771F881FDAF7880F9695879597F9089551
:10366000990F0008550FAA0BE0E8FEEF1616170693
:10367000E807F907C0F012161306E407F50798F0FB
:10368000621B730B840B950B39F40A2661F0232B14
:10369000242B252B21F408950A2609F4A140A69590
:1036A0008FEF811D811D089597F99F6780E870E075
:1036B00060E008959FEF80EC089500240A941616A8
:1036C000170618060906089500240A941216130610
:1036D000140605060895092E0394000C11F488239E
:1036E00052F0BB0F40F4BF2B11F460FF04C06F5FBA
:1036F0007F4F8F4F9F4F089557FD9058440F551F90
:1037000059F05F3F71F04795880F97FB991F61F063
:103710009F3F79F087950895121613061406551FDA
:10372000F2CF4695F1DF08C0161617061806991F46
:10373000F1CF86957105610508940895E894BB273B
:1037400066277727CB0197F908958ADF08F48FEF72
:1037500008950BD0C0CFB1DF28F0B6DF18F0952365
:1037600009F0A2CFA7CF1124EACFC6DFA0F3959F1F
:10377000D1F3950F50E0551F629FF001729FBB2758
:10378000F00DB11D639FAA27F00DB11DAA1F649F04
:103790006627B00DA11D661F829F2227B00DA11DB7
:1037A000621F739FB00DA11D621F839FA00D611D3D
:1037B000221F749F3327A00D611D231F849F600D5E
:1037C000211D822F762F6A2F11249F5750408AF097
:1037D000E1F088234AF0EE0FFF1FBB1F661F771F23
:1037E000881F91505040A9F79E3F510570F05CCF63
:1037F000A6CF5F3FECF3983EDCF38695779567950F
:10380000B795F795E7959F5FC1F7FE2B880F911D40
:103810009695879597F90895629FD001739FF0015F
:10382000829FE00DF11D649FE00DF11D929FF00D50
:10383000839FF00D749FF00D659FF00D9927729F87
:10384000B00DE11DF91F639FB00DE11DF91FBD0112
:10385000CF0111240895991B79E004C0991F961790
:1038600008F0961B881F7A95C9F78095089597FBF5
:10387000092E07260AD077FD04D049D006D00020B3
:103880001AF4709561957F4F0895F6F7909581959C
:103890009F4F0895A1E21A2EAA1BBB1BFD010DC06C
:1038A000AA1FBB1FEE1FFF1FA217B307E407F507F0
:1038B00020F0A21BB30BE40BF50B661F771F881FCC
:1038C000991F1A9469F760957095809590959B0162
:1038D000AC01BD01CF01089597FB092E05260ED03E
:1038E00057FD04D0D7DF0AD0001C38F4509540951E
:1038F000309521953F4F4F4F5F4F0895F6F79095C4
:103900008095709561957F4F8F4F9F4F0895AA1BAB
:10391000BB1B51E107C0AA1FBB1FA617B70710F0BA
:10392000A61BB70B881F991F5A95A9F780959095EC
:10393000BC01CD010895EE0FFF1F0590F491E02D1D
:1039400009942F923F924F925F926F927F928F9243
:103950009F92AF92BF92CF92DF92EF92FF920F931E
:103960001F93CF93DF93CDB7DEB7CA1BDB0B0FB628
:10397000F894DEBF0FBECDBF09942A8839884888E5
:103980005F846E847D848C849B84AA84B984C8847B
:10399000DF80EE80FD800C811B81AA81B981CE0F72
:1039A000D11D0FB6F894DEBF0FBECDBFED01089557
:0439B000F894FFCFB9
:1039B400424344300D0A00424754320D0A00425338
:1039C40054335374756475696E6F2D000D0A00428B
:1039D40052530D0A0001000000FFFFFFFFFFFFFF2D
:1039E400FFE80301FF0E0F1011121321002300251D
:1039F40000270029002C002E003100340037003A43
:103A0400003E004100450049004E00520057005C52
:103A140000620068006E0075007B0082008B0093DA
:103A2400009C00A500AF00B900C400D000DC00E990
:103A340000F70006011501260137014A015D0172F4
:103A44000188019F01B801D201EE010B022A024B49
:103A5400026E029302BA02E40210033F037003A44D
:103A640003DC03170455049704DD0427057505C812
:103A74000520067D06E0064907B8072D08A9082D8C
:103A840009B9094D0AEA0A900B400CFA0CC00D91D1
:103A94000E6F0F5A1002040708090A0B0C000000ED
:103AA40000740C430CFC0B050C1A0C2B0C000000CE
:0E3AB40000B6155B164C157D155D15A61500A8
:00000001FF
