:100000000C9480000C94A8000C94A8000C94A800F8
:100010000C94A8000C94A8000C94A8000C94F8135D
:100020000C94A8000C94A8000C94A8000C94FB0459
:100030000C94A8000C94A8000C94A8000C94A800A0
:100040000C94290D0C94A8000C94A0100C94D210C0
:100050000C94A8000C94A8000C94A8000C94A80080
:100060000C9498090C94A800A801A801A801D60135
:10007000D601D601D601D601D601D601D601D601C8
:10008000D601B301CA01B301B301BA01CA016B03BE
:10009000BB03DE03F203300401045B0455040000DB
:1000A0000008000201000003040700000000000037
:1000B0000000010204081020408001020408102002
:1000C00001020408102004040404040404040202CD
:1000D00002020202030303030303000000002300E3
:1000E0002600290000000000250028002B00000049
:1000F0000000240027002A0002005E04A00802116C
:1001000011241FBECFEFD4E0DEBFCDBF11E0A0E0D1
:10011000B1E0E4E9FFE202C005900D92A63CB10710
:10012000D9F723E0A6ECB1E001C01D92A93BB207CC
:10013000E1F710E0C0E8D0E004C02197FE010E9482
:100140004417CD37D107C9F70E949E140C94C817E5
:100150000C940000DC01ED91FC910190F081E02D08
:100160000994AF92BF92CF92DF92EF92FF920F93DA
:100170001F93CF9390E0FC01EE50FE4F2081213081
:1001800009F464C008F45BC0223009F081C08AEF32
:1001900091E00E94140C8AEF91E00E94D70ABC0102
:1001A000990F880B990B1F921F921F92C5E6CF9350
:1001B000A12CB12C650110E8E12EF12C00E010E03B
:1001C00020E83FEF4FEF5FEF0E945C14772787E056
:1001D00093E00E94AA008AEF91E00E94DB0ABC0132
:1001E000990F880B990B1F921F921F92CF9320E8B3
:1001F0003FEF4FEF5FEF0E945C14772787E093E0BB
:100200000E94AA008AEF91E00E94DF0ABC01990FC8
:10021000880B990B1F921F921F92CF9320E83FEFFC
:100220004FEF5FEF0E945C14CB012DB73EB7245F08
:100230003F4F0FB6F8943EBF0FBE2DBF2BC0FC0141
:10024000E857FE4F80810E94200F24C0FC01E05837
:10025000FE4F80810E940F0EBC01990F880B990BF5
:100260001F921F921F9225E62F93A12CB12C65019E
:10027000E12C14E0F12E00E010E020E030E0A901D4
:100280000E945C14CB010F900F900F900F9002C052
:1002900080E090E0BC01772787E093E0CF911F9149
:1002A0000F91FF90EF90DF90CF90BF90AF900C94A4
:1002B000AA00811117C083ED91E00E945A0686EDD5
:1002C00091E00E945A0661E082E00E94B40E61E073
:1002D00084E00E94B40E60E082E00E94F00E60E0D4
:1002E00084E016C089ED91E00E945A068CED91E001
:1002F0000E945A0661E087E00E94B40E61E088E047
:100300000E94B40E60E087E00E94F00E60E088E09A
:100310000C94F00E90E0FC01E656FE4F608170E018
:100320009C01220F331F820F931F24EC39E044EF0E
:1003300051E089539E4F0C94D805462F50E0FA01A6
:100340003397E331F10590F5EC5CFF4F0C944417C3
:1003500090E0FC01EE50FE4F23E02083FC01E857C3
:10036000FE4F61E020C0E82FF0E0EE50FE4F81E04C
:1003700080830895E82FF0E0EE50FE4F82E0808306
:100380008EE392E00E940F0842E060E08AEF91E085
:100390000C94920B90E0FC01EE50FE4F1082FC0199
:1003A000E857FE4F62E080810C94B40E0895CF931D
:1003B000DF93EB019B01220F232F221F330B2770AA
:1003C000332720688F70992753E0880F991F5A951B
:1003D000E1F7B901682B792B87E093E00E94AA002E
:1003E000BE016F77772787E093E0DF91CF910C9480
:1003F000AA00CF93DF93C62FE82FF0E0E257FE4F1D
:10040000D08161E08D2F0E94B40EEC2FF0E0EE0F52
:10041000FF1FEA5FFE4F6081718120E030E0A9019B
:100420008D2FDF91CF910C945A11E82FF0E0E25715
:10043000FE4F80810C94E2132F923F924F925F9275
:100440006F927F928F929F92AF92BF92CF92DF92E4
:10045000EF92FF920F931F93CF93DF93CDB7DEB749
:10046000EA970FB6F894DEBF0FBECDBF98AB8FA74B
:10047000622E9E012F5D3F4F3AA729A76BA77CA74D
:10048000CE0101964C013EA72DA7AFA4B8A8712CB0
:10049000E42FF0E0FAABE9ABC5012FA538A9821B28
:1004A000930BA9A9BAA98A179B070CF056C0D501CE
:1004B0008D915D0190E09C01220F331F820F931FED
:1004C00089539E4F0E940C07EDA5FEA58193FEA7C0
:1004D000EDA7ABA5BCA50D91BCA7ABA710E0081B71
:1004E0001109B801110F880B990B0E94C5156B01FA
:1004F0007C01F40161937193819391934F0120E00A
:1005000030E0A9010E94751616012701181624F083
:1005100057FA509457F85094672D70E080E090E0BF
:100520000E94C5159B01AC01C201B1010E94751664
:1005300018160CF0B1CF20E030E0A901C701B601D8
:100540000E947516181614F4702EA6CFC701B601B6
:1005500090580E949415762E9FCFFE0131967F0110
:1005600000E010E0872C912CA12CB12C29A93AA9EC
:1005700002171307B4F4C501B4010E94C3159B010F
:10058000AC01D7016D917D918D919C910E941B15BD
:10059000F70161937193819391937F010F5F1F4FD7
:1005A000E5CFEE24E394F12C072D10E0862D90E0AA
:1005B000A0E0B0E08FAB98AFA9AFBAAF0E151F05A2
:1005C0000CF465C02FA438A89E012F5F3F4F3CA7B5
:1005D0002BA7CE0181966C01C7010F2C000CAA0B32
:1005E000BB0B8BAB9CABADABBEABC601A9A5BAA593
:1005F0008A1B9B0BE9A9FAA98E179F07C4F5D601A0
:100600006D916D01EBA5FCA54190519061907190A9
:10061000FCA7EBA7D101ED911D01EDA770E080E0F3
:1006200090E00E94C5154B015C016BA97CA98DA9C6
:100630009EA90E94C5159B01AC01C301B2010E9495
:100640007A169B01AC01C501B4010E94AF140E944F
:100650008D15FDA54F2F50E09A01220F331F240F57
:10066000351FC90189539E4F0E949B06BECF60E88B
:1006700070E080E890E00E94D7016FA978AD89AD65
:100680009AAD0E94980DFFEFEF1AFF0A97CFEA96F6
:100690000FB6F894DEBF0FBECDBFDF91CF911F9193
:1006A0000F91FF90EF90DF90CF90BF90AF909F9011
:1006B0008F907F906F905F904F903F902F90089514
:1006C000CF93DF938830910508F0F5C0FC01E95B1A
:1006D000FF4F0C94441772FF04C0D5E0C8E087E0D8
:1006E00003C0D3E0C4E082E09B01220F232F221F2E
:1006F000330B3195277033276F77772721303105FA
:1007000091F46115710511F461E01AC06130710551
:1007100009F0D1C060E00E94F00E61E08C2FDF9103
:10072000CF910C94F00E2230310571F461157105F2
:1007300011F461E0F0CF6130710509F0BCC060E0F8
:100740000E94F00E60E0EACF2430310509F0B3C01A
:10075000072E000C880B990B0E94C51523E333E389
:1007600043E250E40E947A160E948D158D2FDF918E
:10077000CF910C942C0E272F27708091F1018823A4
:1007800081F08091F001482F50E0FA01E951FE4FCD
:100790002083FA01E152FE4F60838F5F8093F00166
:1007A0008AC0772730E0C901880F991F820F931FF5
:1007B00089539E4FDF91CF910C949B06872F8770B2
:1007C0009B01220F232F221F330B319520FF06C0E0
:1007D0006F776053DF91CF910C94F901DF91CF9146
:1007E0000C941502CB01880F892F881F990B9195C6
:1007F000682F6170E72FE770F0E0EC56FE4F8081C4
:100800008ECFCB01880F892F881F990B91958F7000
:10081000F9F4CB0136E0969587953A95E1F780FD9E
:1008200009C01092F00181E08093F1016F73609331
:10083000EF0141C01092F1012091EF014091F001D0
:100840006FED71E087EE91E0DF91CF910C941C0287
:10085000813089F5862F8770DF91CF910C94B1009C
:100860001092C601CB0126E0969587952A95E1F76F
:100870008F716F71663058F4633090F4613061F0BD
:100880006230C9F48250DF91CF910C948A0190EFCD
:10089000960F963080F404C0DF91CF910C945901EB
:1008A0008A50DF91CF910C949D0187E093E0DF9116
:1008B000CF910C947E10DF91CF910895CF93DF9369
:1008C0006DE18AEF91E00E94CC0AC7ECD1E0CE0145
:1008D0000E94BC05239681E0CF3DD807C1F7DF9188
:1008E000CF91089526E040E052EC61E070E087E0AF
:1008F00093E00E941E1087E093E00E94B50F80E015
:100900000E940F0EBC01990F880B990B0E94541482
:10091000E2EFF1E084E0819391E0EA3FF907D9F753
:1009200081E08093C60160E870E080E890E00C947C
:10093000D701EF92FF920F931F93CF93DF937C0128
:100940008B0187E093E00E94490F029714F480E046
:100950002FC087E093E00E94630FEC01803891057F
:10096000B4F39C0144E0359527954A95E1F727704B
:100970003327F7013183208387E093E00E94490FFA
:10098000892BD1F387E093E00E94630F80389105B3
:10099000F4F68F779927CF70DD27D695DC2FCC27FB
:1009A000D795C7958C2B9D2BF8019183808381E08F
:1009B000DF91CF911F910F91FF90EF900895CF930A
:1009C000DF9300D000D0CDB7DEB7BE016F5F7F4FA1
:1009D000CE0103960E949904882331F069817A81BF
:1009E0008B819C810E9460030F900F900F900F905D
:1009F000DF91CF9108951F920F920FB60F9211249D
:100A00002F933F934F935F936F937F938F939F9316
:100A1000AF93BF93EF93FF938091190287FF05C0B7
:100A200010928500109284001BC020911902022EA2
:100A3000000C330B8091180290E02817390784F4DA
:100A400080911902082E000C990BFC01EE0FFF1F7C
:100A50008E0F9F1FFC01E65EFD4F808186FD15C055
:100A6000809119028F5F8093190220911902022E42
:100A7000000C330B8091180290E028173907C4F45A
:100A8000809119028C3064F113C080911902082EF4
:100A9000000C990BFC01EE0FFF1F8E0F9F1FFC0136
:100AA000E65EFD4F808160E08F730E94F00ED8CF2C
:100AB0008091840090918500049680329E4418F4C1
:100AC00080E29EE405C080918400909185000496A8
:100AD00090938900809388008FEF809319023BC028
:100AE000209184003091850080911902082E000C1D
:100AF000990BFC01EE0FFF1F8E0F9F1FFC01E65E9E
:100B0000FD4F81819281820F931F90938900809382
:100B1000880080911902082E000C990BFC01EE0F41
:100B2000FF1F8E0F9F1FFC01E65EFD4F808186FF39
:100B300012C080911902082E000C990BFC01EE0FD7
:100B4000FF1F8E0F9F1FFC01E65EFD4F808161E05D
:100B50008F730E94F00EFF91EF91BF91AF919F9123
:100B60008F917F916F915F914F913F912F910F9056
:100B70000FBE0F901F901895FC01909118029C30A9
:100B8000A0F481E0890F809318029083892F90E070
:100B9000FC01EE0FFF1F8E0F9F1FFC01E65EFD4F55
:100BA0008CED95E09283818308958FEF8083089583
:100BB000DF92EF92FF920F931F93CF93DF93EC019D
:100BC000D62E7A01890188818C3008F06AC061E0F4
:100BD0008D2D0E94B40E8881E82FF0E09F01220F36
:100BE000331FE20FF31FE65EFD4F9D2D9F732081A3
:100BF000207CD22ED92AD08260E272E0AB014E195D
:100C00005F0957FF02C04D5F5F4F5595479555955A
:100C10004795498340E659E09A01201B310B37FF85
:100C200002C02D5F3F4F35952795359527952A832F
:100C30006CE00E94F7169CE0899FB001112440E00F
:100C400050E09A01260F371FF901EE0FFF1F2E0FFC
:100C50003F1FF901E65EFD4F908196FD16C04F5F84
:100C60005F4F4C30510569F781110FC01092800021
:100C700082E0809381001092850010928400B19AE6
:100C800080916F00826080936F00E881F0E0CF0177
:100C9000880F991FE80FF91FE65EFD4F8081806481
:100CA00080838881DF91CF911F910F91FF90EF900A
:100CB000DF900895DC01EC91F0E0CF01880F991FDF
:100CC000E80FF91FE65EFD4F80818F7B80830895DA
:100CD000FC0190819C3070F5818128E830E0281B70
:100CE000310987FD3395220F331F220F331F6217FF
:100CF00073077CF0828128E532E0281B310987FDEB
:100D00003395220F331F220F331F621773070CF422
:100D10009B014FB7F894892F90E022503109FC01D4
:100D2000EE0FFF1F8E0F9F1FFC01E65EFD4F32830B
:100D300021834FBF0895AF92BF92CF92DF92EF927F
:100D4000FF920F931F93CF93DF93EC01603282E009
:100D500078070CF03FC077FD06C0653B71052CF0AD
:100D600064EB70E002C060E070E0898128E830E068
:100D70005901A81AB10887FDB394AA0CBB1CAA0C90
:100D8000BB1C0B2C000CCC08DD08072E000C880BBC
:100D9000990B2A8108E512E0021B110927FD139522
:100DA000000F111F000F111F012E000C220B330B1F
:100DB0003F932F931F930F9314EBE12EF12C00E040
:100DC00010E020E030E0A9010E945C140F900F9029
:100DD0000F900F90CE01DF91CF911F910F91FF9057
:100DE000EF90DF90CF90BF90AF900C946806FC011D
:100DF00080818F3F71F090E0FC01EE0FFF1F8E0F9E
:100E00009F1FFC01E65EFD4F818192819F710296DA
:100E1000089580E090E008954F925F926F927F92E4
:100E2000AF92BF92CF92DF92EF92FF920F931F93F8
:100E3000CF93DF9300D000D0CDB7DEB7FC01228185
:100E400048E552E02A01421A510827FD5394440C08
:100E5000551C440C551C052C000C66087708418174
:100E600028E830E0241B310947FD3395220F331F5A
:100E7000220F331F032E000C440B550B29833A839A
:100E80004B835C830E94F7060196BC01990F880B87
:100E9000990B1F921F921F92E4EBEF93A12CB12CA0
:100EA00065018301720129813A814B815C810E9435
:100EB0005C140F900F900F900F90CB010F900F903C
:100EC0000F900F90DF91CF911F910F91FF90EF90B6
:100ED000DF90CF90BF90AF907F906F905F904F90DA
:100EE000089580E090E0089580916E0290E0209156
:100EF0006F02821B9109089590916F0280916E029A
:100F0000981750F4E92FF0E0E059FD4F208130E0D0
:100F10009F5F90936F0202C02FEF3FEFC9010895CA
:100F2000E0916F0280916E02E81730F4F0E0E05932
:100F3000FD4F808190E008958FEF9FEF0895089511
:100F4000CF92DF92EF92FF920F931F93CF93DF9395
:100F50007C01262F972F8A0180914A02882391F0E5
:100F6000C62FD72F6E01C40ED51ECC15DD0571F02E
:100F70006991D701ED91FC910190F081E02DC701BD
:100F80000995F3CF642F822F0E946009C801DF9179
:100F9000CF911F910F91FF90EF90DF90CF90089528
:100FA000CF93DF931F92CDB7DEB7698320914A02BA
:100FB0002223D1F020914B02203240F021E030E09A
:100FC000FC013383228380E090E015C080914C02C5
:100FD000E82FF0E0E35BFD4F998190838F5F809372
:100FE0004C0280934B0205C061E0CE0101960E9445
:100FF000600981E090E00F90DF91CF910895FC01AE
:101000001382128288EE93E0A0E0B0E0848395839F
:10101000A683B78386EA91E0918380830895109236
:101020006F0210926E0210924C0210924B020C94BE
:10103000A40881E080934A0260936D0210924C02F2
:1010400010924B0208950F93062F21E040914B021E
:101050006DE472E080916D020E940A0910924C02C8
:1010600010924B0210924A020F9108954F925F9294
:101070006F927F92AF92BF92CF92EF92FF920F93B7
:101080001F93CF93DF935C01F62ED42F28013901F3
:10109000EE2021F10E941908CE2DC43008F0C3E0E3
:1010A000C150C0F0D501ED91FC91B8E0CB9FC001DB
:1010B0001124A301920104C05695479537952795B1
:1010C0008A95D2F7CA01B9010190F081E02DC501DE
:1010D0000995E6CF60E0C5010E9423084D2FD1326B
:1010E00008F040E22C2D60E772E08F2D0E94C208CC
:1010F00010926F0280936E02DF91CF911F910F913A
:10110000FF90EF90CF90BF90AF907F906F905F90E7
:101110004F900895CF92EF920F931F93C22EE12C20
:1011200000E010E098010E9436081F910F91EF90A7
:10113000CF90089521E00C948A0861E00C94230874
:101140008EE392E00C94FF071092FD0281E0809301
:10115000FB021092FA0261E082E10E94F00E61E06F
:1011600083E10E94F00EE9EBF0E080818E7F8083C6
:1011700080818D7F808380E28093B80085E48093B6
:10118000BC000895413208F043C09091FD029111D6
:10119000FCCF91E09093FD022093FB022FEF209370
:1011A00090021092D502240F2093D4029093FC0257
:1011B0009091FC02880F892B8093FC028091FA02A7
:1011C000813061F41092FA028091FC028093BB009E
:1011D0008091BC0083FDF8CF85EC01C085EE809343
:1011E000BC008091FD028130E1F38091D50284172B
:1011F00010F44091D50226ED32E0FB01D9018A2F8F
:10120000821B841718F48D918193F9CF842F089550
:1012100080E008950F93413208F04AC09091FD029A
:101220009111FCCF32E03093FD020093FB023FEFBF
:10123000309390021092D5024093D402FB0166EDE8
:1012400072E0DB013A2F361B341718F431913D93CD
:10125000F9CF1092FC023091FC02880F832B80930F
:10126000FC028091FA02813061F41092FA028091BE
:10127000FC028093BB008091BC0083FDF8CF85EC1D
:1012800001C085EE8093BC00222321F08091FD02F5
:101290008230D1F3809190028F3F79F0809190025B
:1012A000803241F080919002803331F094E005C0AB
:1012B00091E003C092E001C093E0892F0F9108955F
:1012C0004091B202262F30E0240F311D213231052A
:1012D000DCF42091FD022430C9F4FC0180E090E0B0
:1012E000861758F43091B2022191DC01AC54BD4F05
:1012F000A30FB11D2C930196F3CF8091B202680F1A
:101300006093B20280E0089581E0089582E008953C
:1013100085ED8093BC008091BC0084FDFCCF1092D1
:10132000FD02089585EC8093BC001092FD020895A3
:101330001F920F920FB60F9211242F933F934F934A
:101340005F936F937F938F939F93AF93BF93EF932D
:10135000FF938091B900887F803609F49EC078F5AC
:10136000883209F45DC090F4803109F456C038F435
:10137000882309F4F5C0883009F44FC0F5C08831DE
:1013800009F44EC0803209F45FC0EEC0803409F425
:101390006AC058F4803309F457C0883309F0E4C0B8
:1013A000809390020E949209DFC0803509F44FC0FB
:1013B000883509F45DC0883409F0D6C0D3C08839B7
:1013C00009F4C4C0A8F4883709F467C038F4883633
:1013D00009F463C0803709F460C0C6C0883809F4D6
:1013E000B5C0803909F45FC0803809F0BDC05BC06A
:1013F000803B09F483C038F4803A09F466C0883A27
:1014000009F47CC0B1C0803C09F4A4C0883C09F454
:10141000A1C0883B09F487C0A7C08091FC0210C01E
:101420009091D5028091D402981770F5E091D50281
:1014300081E08E0F8093D502F0E0EA52FD4F80816B
:101440008093BB0085EC83C0809390028BC0E091B9
:10145000D50281E08E0F8093D5028091BB00F0E031
:10146000EA52FD4F80839091D5028091D4026BC0E7
:10147000E091D50281E08E0F8093D5028091BB0070
:10148000F0E0EA52FD4F80838091FB0281116AC037
:1014900081E08093FA0284EA5EC083E08093FD02DB
:1014A00010929102CFCF80919102803208F04EC00D
:1014B000E091910281E08E0F809391028091BB00B8
:1014C000F0E0EE56FD4F8083BDCF0E9492098091DF
:1014D0009102803230F4E0919102F0E0EE56FD4F3F
:1014E00010826091910270E0E091F602F091F702B3
:1014F00082E992E009951092910236C084E08093CF
:10150000FD021092B3021092B202E091F802F09143
:10151000F90209958091B202811105C081E08093A2
:10152000B2021092B402E091B30281E08E0F809378
:10153000B302F0E0EC54FD4F80818093BB009091AA
:10154000B3028091B202981708F47CCF85E88093AB
:10155000BC000AC085EC8093BC001092FD0204C060
:10156000109290020E948809FF91EF91BF91AF9174
:101570009F918F917F916F915F914F913F912F91AB
:101580000F900FBE0F901F901895DC01ED91FC910C
:101590000190F081E02D0994FC01608340EE5EE251
:1015A00065E672E4428F538F648F758F0895FC0156
:1015B000838194810895FC01858196810895FC01C1
:1015C0008781908508951F93CF93DF93EC01162FA9
:1015D00068818EE392E00E941908612F8EE392E009
:1015E0000E94D00760E08EE392E00E94230841E071
:1015F00068818EE392E00E949A088EE392E00E9456
:101600007407892B29F08EE392E00E947C0701C0C9
:1016100080E0DF91CF911F9108950F931F93CF9397
:101620008C01FC0160818EE392E00E9419086AE25D
:101630008EE392E00E94D0078EE392E00E949D0824
:1016400041E0F80160818EE392E00E949A088EE307
:1016500092E00E947407892B31F08EE392E00E94A1
:101660007C07C82F01C0C0E0F80160818EE392E0E2
:101670000E9419086AE28EE392E00E94D0076C2F64
:1016800070E06E7F8EE392E00E94C50A8EE392E0E6
:10169000CF911F910F910C949D081F93CF93DF93CF
:1016A000EC0168818EE392E00E9419086AE28EE301
:1016B00092E00E94D0078EE392E00E949D0841E0F4
:1016C00068818EE392E00E949A088EE392E00E9485
:1016D0007407892B31F08EE392E00E947C07182F6B
:1016E00001C010E068818EE392E00E9419086AE26E
:1016F0008EE392E00E94D0078D85811103C062E0E5
:1017000070E002C060E070E0C12FC9616C2B8EE315
:1017100092E00E94C50A8EE392E0DF91CF911F9183
:101720000C949D08CF93DF93EC016D874A83611180
:1017300005C064E277E98FE79CE304C064E277E9DF
:101740008FE79BE3443029F49B01AC010E94AF1466
:1017500008C0483031F420E030E040E850E40E9416
:101760007A1669877A878B879C876DE0CE010E9405
:10177000E30A68818EE392E00E9419086BE270E050
:101780008EE392E00E94C50A60E470E08EE392E08E
:101790000E94C50A8EE392E00E949D086AE070E014
:1017A00080E090E00E94980DCE010E940D0B6881B0
:1017B0008EE392E00E94190861E170E08EE392E00E
:1017C0000E94C50A60EC70E08EE392E00E94C50AB8
:1017D0008EE392E00E949D0868818EE392E00E9471
:1017E00019086EE070E08EE392E00E94C50A8A81DB
:1017F000843029F0883051F462E070E002C061E08A
:1018000070E08EE392E00E94C50A05C060E08EE3BE
:1018100092E00E94D0078EE392E00E949D08CE01E4
:10182000DF91CF910C944D0BCF92DF92EF92FF920C
:101830000F931F93CF93DF93EC0168818EE392E0C7
:101840000E94190860E08EE392E00E94D00760E0F9
:101850008EE392E00E9423088D85811102C044E04E
:1018600001C047E068818EE392E00E949A088EE30F
:1018700092E00E947407892B09F4E2C08EE392E0A3
:101880000E947C0789838D85882309F479C08EE3C3
:1018900092E00E947C07182F8EE392E00E947C0762
:1018A00060E070E0712F860F971F9C838B83BC01D3
:1018B00097FF02C0615C7F4F26E0759567952A957A
:1018C000E1F7072E000C880B990B0E94C51529859E
:1018D0003A854B855C850E947A166E877F87888B58
:1018E000998B8EE392E00E947C07182F8EE392E0A2
:1018F0000E947C0760E070E0712F860F971F9E8327
:101900008D83BC0197FF02C0615C7F4F96E07595A7
:1019100067959A95E1F7072E000C880B990B0E94AA
:10192000C51529853A854B855C850E947A166A8B98
:101930007B8B8C8B9D8B8EE392E00E947C07182F13
:101940008EE392E00E947C0760E070E0712F860FCA
:10195000971F98878F83BC0197FF02C0615C7F4F00
:1019600086E0759567958A95E1F7072E000C880B40
:10197000990B0E94C51529853A854B855C855AC00F
:101980008EE392E00E947C0720E0382F37FF02C0F0
:1019900021503F4F832F880F880B3B838C838EE32E
:1019A00092E00E947C0720E0382F37FF02C02150D0
:1019B0003F4F832F880F880B3D838E838EE392E009
:1019C0000E947C0720E0382F37FF02C021503F4F94
:1019D000032F132F110F110B18870F83C984DA847B
:1019E000EB84FC846B817C81072E000C880B990BA7
:1019F0000E94C515A70196010E947A166E877F87FF
:101A0000888B998B6D817E81072E000C880B990B3A
:101A10000E94C515A70196010E947A166A8B7B8BDE
:101A20008C8B9D8BB801110F880B990B0E94C515EB
:101A3000A70196010E947A166E8B7F8B888F998FF3
:101A4000DF91CF911F910F91FF90EF90DF90CF909A
:101A500008951F920F920FB60F9211242F933F9368
:101A60008F939F93AF93BF938091FF029091000358
:101A7000A0910103B09102033091FE0226E0230FF2
:101A80002D3720F40296A11DB11D05C029E8230FB2
:101A90000396A11DB11D2093FE028093FF02909337
:101AA0000003A0930103B09302038091030390917C
:101AB0000403A0910503B09106030196A11DB11D79
:101AC0008093030390930403A0930503B09306034C
:101AD000BF91AF919F918F913F912F910F900FBE2A
:101AE0000F901F9018953FB7F89480910303909141
:101AF0000403A0910503B091060326B5A89B05C079
:101B00002F3F19F00196A11DB11D3FBFBA2FA92F7C
:101B1000982F8827820F911DA11DB11DBC01CD01F9
:101B200043E0660F771F881F991F4A95D1F70895E4
:101B30008F929F92AF92BF92CF92DF92EF92FF92DD
:101B40006B017C010E94730D4B015C01C114D10437
:101B5000E104F10401F10E94AD140E94730DDC0157
:101B6000CB0188199909AA09BB09883E9340A105B0
:101B7000B10560F321E0C21AD108E108F10888EE4E
:101B8000880E83E0981EA11CB11CC114D104E1048D
:101B9000F10419F7DBCFFF90EF90DF90CF90BF906B
:101BA000AF909F908F900895789484B5826084BDA3
:101BB00084B5816084BD85B5826085BD85B5816051
:101BC00085BDEEE6F0E0808181608083E1E8F0E0B1
:101BD0001082808182608083808181608083E0E8E0
:101BE000F0E0808181608083E1EBF0E080818460BF
:101BF0008083E0EBF0E0808181608083EAE7F0E0C1
:101C000080818460808380818260808380818E7FF8
:101C100080838081806880831092C10008958E3017
:101C200008F08E5087702091040190E4299F900164
:101C30001124822B80937C0080917A0080648093B1
:101C40007A0080917A0086FDFCCF80917800209107
:101C5000790090E0922B08951F93CF93DF93182F74
:101C6000EB0161E00E94B40E209711F460E004C023
:101C7000CF3FD10539F461E0812FDF91CF911F91E2
:101C80000C94F00EE12FF0E0E256FF4FE491E330C8
:101C9000F9F048F4E130B9F0E230A1F584B58062A2
:101CA00084BDC8BD34C0E730E9F0E83019F1E43054
:101CB00049F580918000806280938000D0938B00F2
:101CC000C0938A0024C084B5806884BDC7BD1FC08E
:101CD00080918000806880938000D0938900C093B9
:101CE000880015C08091B00080688093B000C093D8
:101CF000B3000DC08091B00080628093B000C093AB
:101D0000B40005C0C038D1050CF0B5CFAFCFDF911E
:101D1000CF911F910895833081F028F4813099F09C
:101D20008230A1F008958730A9F08830B9F084306E
:101D3000D1F4809180008F7D03C0809180008F77E7
:101D400080938000089584B58F7702C084B58F7D1D
:101D500084BD08958091B0008F7703C08091B0005A
:101D60008F7D8093B0000895CF93DF9390E0FC01C6
:101D7000EE54FF4F2491FC01EA53FF4F84918823D6
:101D800061F190E0880F991FFC01E251FF4FC5916E
:101D9000D491FC01EC51FF4FA591B491611109C0A0
:101DA0009FB7F8948881209582238883EC912E2315
:101DB0000BC0623061F49FB7F8943881822F809510
:101DC00083238883EC912E2B2C939FBF06C08FB763
:101DD000F894E8812E2B28838FBFDF91CF9108954F
:101DE0001F93CF93DF93282F30E0F901E256FF4F86
:101DF0008491F901EE54FF4FD491F901EA53FF4F5A
:101E0000C491CC23C9F0162F81110E948B0EEC2FA8
:101E1000F0E0EE0FFF1FEC51FF4FA591B4918FB78B
:101E2000F894111105C09C91ED2FE095E92302C0B3
:101E3000EC91ED2BEC938FBFDF91CF911F91089523
:101E4000CF93DF93282F30E0F901E256FF4F8491C2
:101E5000F901EE54FF4FD491F901EA53FF4FC491B9
:101E6000CC2391F081110E948B0EEC2FF0E0EE0F4D
:101E7000FF1FE652FF4FA591B491EC91ED2381E055
:101E800090E021F480E002C080E090E0DF91CF910B
:101E90000895FC01918D228D892F90E0805C9F4FE9
:101EA000821B91098F7399270895FC01918D828D72
:101EB000981731F0828DE80FF11D858D90E008951F
:101EC0008FEF9FEF0895FC01918D828D981761F03F
:101ED000828DDF01A80FB11D5D968C91928D9F5F61
:101EE0009F73928F90E008958FEF9FEF0895FC010C
:101EF000538D448D252F30E0842F90E0821B930B6F
:101F0000541710F0CF9608950197089588EF90E147
:101F1000892B49F080E090E0892B29F00E94F8108D
:101F200081110C9400000895FC01848DDF01A80F3D
:101F3000B11DA35ABF4F2C91848D90E001968F73F1
:101F40009927848FA689B7892C93A089B1898C9110
:101F500080648C93938D848D981306C00288F389D6
:101F6000E02D80818F7D80830895CF93DF93EC01F6
:101F7000888D8823C9F0EA89FB89808185FD05C0A9
:101F8000A889B9898C9186FD0FC00FB607FCF5CFE3
:101F9000808185FFF2CFA889B9898C9185FFEDCF2B
:101FA000CE010E94940FE7CFDF91CF910895EF9279
:101FB000FF920F931F93CF93DF93EC0181E0888F03
:101FC0009B8D8C8D981305C0E889F989808185FDEA
:101FD00024C0F62E0B8D10E00F5F1F4F0F731127DB
:101FE000E02E8C8DE8120CC00FB607FCFACFE88902
:101FF000F989808185FFF5CFCE010E94940FF1CF42
:102000008B8DFE01E80FF11DE35AFF4FF0820B8F1D
:10201000EA89FB898081806207C0EE89FF8960833D
:10202000E889F98980818064808381E090E0DF9194
:10203000CF911F910F91FF90EF900895CF92DF9273
:10204000EF92FF921F93CF93DF93EC016A017B0124
:10205000122F60E874E88EE190E0A70196010E94DB
:102060000317DA01C9010197A109B109B695A7952E
:1020700097958795AC01E889F98982E080834115BD
:1020800080E15807A8F0E889F989108260E472E4D9
:102090008FE090E0A70196010E940317BA01A90101
:1020A0004150510961097109769567955795479592
:1020B000EC85FD855083EE85FF854083188EEC8985
:1020C000FD891083EA89FB89808180618083EA89A8
:1020D000FB89808188608083EA89FB8980818068B0
:1020E0008083EA89FB8980818F7D8083DF91CF9116
:1020F0001F91FF90EF90DF90CF900895CF93DF93E3
:10210000EC01E881F9810680F781E02D0995EA89E3
:10211000FB8980818F7E8083EA89FB898081877F2C
:102120008083EA89FB8980818F778083EA89FB89B4
:1021300080818F7D80838A8D898FDF91CF910895F3
:102140001F920F920FB60F9211242F938F939F938C
:10215000EF93FF93E0911703F09118038081E091D2
:102160001D03F0911E0382FD12C090818091200317
:102170008F5F8F7320912103821751F0E09120032C
:10218000F0E0E95FFC4F958F8093200301C08081D0
:10219000FF91EF919F918F912F910F900FBE0F9014
:1021A0001F9018951F920F920FB60F9211242F9324
:1021B0003F934F935F936F937F938F939F93AF93CF
:1021C000BF93EF93FF9387E093E00E94940FFF91FA
:1021D000EF91BF91AF919F918F917F916F915F919F
:1021E0004F913F912F910F900FBE0F901F90189518
:1021F00087E093E00E94490F21E0892B09F420E059
:10220000822F0895E7E0F3E01382128288EE93E0D4
:10221000A0E0B0E084839583A683B78388EB91E048
:102220009183808385EC90E09587848784EC90E0AF
:102230009787868780EC90E0918B808B81EC90E093
:10224000938B828B82EC90E0958B848B86EC90E074
:10225000978B868B118E128E138E148E0895CF92CB
:10226000DF92EF92FF920F931F93CF93DF936C0156
:102270007A018B01C0E0D0E0CE15DF0589F0D801EE
:102280006D918D01D601ED91FC910190F081E02DD1
:10229000C6010995892B11F47E0102C02196ECCF6D
:1022A000C701DF91CF911F910F91FF90EF90DF90C9
:1022B000CF9008953F924F925F926F927F928F924C
:1022C0009F92AF92BF92CF92DF92EF92FF920F93C5
:1022D0001F93CF93DF9300D000D0CDB7DEB790919E
:1022E0000501981721F09F3F09F036C204C0E8EFBE
:1022F000F0E0349081C080930501E8EFF0E0E491D4
:10230000EF3F09F429C2E13031F1E23009F44BC06A
:10231000E11171C014BC15BC94B5926094BD95B523
:10232000916095BDA82FB0E0FD01EA53FF4FE49105
:10233000F0E0EE0FFF1FEC51FF4F05911491109349
:10234000B4030093B303FD01EE54FF4FE491E09317
:10235000B203312C53C010928000109281009091F2
:10236000810098609093810090918100916090939A
:102370008100A82FB0E0FD01EA53FF4FE491F0E0A7
:10238000EE0FFF1FEC51FF4F059114911093AD0319
:102390000093AC03FD01EE54FF4FE491E093AB03D7
:1023A000332433942BC01092B0001092B10090915E
:1023B000B00092609093B0009091B10091609093C2
:1023C000B100A82FB0E0FD01EA53FF4FE491F0E027
:1023D000EE0FFF1FEC51FF4F059114911093A603D0
:1023E0000093A503FD01EE54FF4FE491E093A40395
:1023F00002E0302E03C03E2E37FCAEC129013A0167
:102400008B0161E00E94B40E4801A12CB12C832DF8
:102410008D7F09F0BBC060E079E08DE390E0A5011D
:1024200094010E94251729833A834B835C836901B9
:102430007A0121E0C21AD108E108F1088FEFC8162D
:10244000D104E104F10409F008F44CC060E271EA3F
:1024500087E090E0A50194010E94251769017A01A7
:10246000E1E0CE1AD108E108F108F2E03F1220C005
:102470002FEFC216D104E104F10409F008F46AC197
:1024800068E478EE81E090E0A50194010E942517B0
:1024900069017A0181E0C81AD108E108F108EFEF7B
:1024A000CE16D104E104F10409F0D0F583E067C051
:1024B000FFEFCF16D104E104F104B1F0A8F064E21B
:1024C00074EF80E090E0A50194010E942517690156
:1024D0007A0181E0C81AD108E108F108332009F433
:1024E000DFC02FC181E001C082E03320A1F047C0EE
:1024F00089819A81AB81BC812AE0B595A795979592
:1025000087952A95D1F76C017D0121E0C21AD10887
:10251000E108F10885E095B5987F892B85BD6FC0EE
:1025200064E274EF80E090E0A50194010E94251719
:1025300069017A01F1E0CF1AD108E108F1082FEF23
:10254000C216D104E104F10409F008F4A7C062E165
:102550007AE780E090E0A50194010E9425176901C7
:102560007A01E1E0CE1AD108E108F108FFEFCF16B9
:10257000D104E104F10411F008F0B4C085E09091B9
:10258000B100987F892B8093B10039C060E079E079
:102590008DE390E0A50194010E94251769017A015D
:1025A00081E0C81AD108E108F108C114D104E1E0C2
:1025B000EE06F10488F064E274EF80E090E0A5019B
:1025C00094010E94251769017A01F1E0CF1AD10820
:1025D000E108F10893E001C091E021E032120FC060
:1025E00080918100887F892B809381004114510460
:1025F0006104710449F42FEF3FEFA9012DC041148C
:1026000051046104710471F0D801AA0FBB1FA3012A
:1026100092010E944A1728EE33E040E050E00E9409
:10262000031703C02FEF3FEFA90181E03816A1F097
:10263000E2E03E1619F131108FC0C7BC2093B503FC
:102640003093B6034093B7035093B80380916E0064
:10265000826080936E0080C0D0928900C092880012
:102660002093AE033093AF034093B0035093B10374
:1026700080916F00826080936F006EC0C092B30043
:102680002093A7033093A8034093A9035093AA0370
:10269000809170008260809370005EC084E06FCF94
:1026A000FFEFCF16D104E104F104D1F0C8F069E0E6
:1026B0007DE380E090E0A50194010E942517690167
:1026C0007A0181E0C81AD108E108F108EFEFCE16CF
:1026D000D104E104F10411F008F00ACF84E01BCF2B
:1026E00083E019CF69E07DE380E090E0A5019401EB
:1026F0000E94251769017A0181E0C81AD108E10812
:10270000F108EFEFCE16D104E104F104C1F0B8F006
:1027100089819A81AB81BC814AE0B595A79597954F
:1027200087954A95D1F76C017D0121E0C21AD10845
:10273000E108F108332009F4EDCE87E020CF86E0F0
:10274000D4CEFFEFCF16D104E104F10409F050F626
:1027500084E0CBCE82E013CF0F900F900F900F90BC
:10276000DF91CF911F910F91FF90EF90DF90CF906D
:10277000BF90AF909F908F907F906F905F904F90A1
:102780003F900895813039F018F0823051F008956B
:1027900010926E00089580916F008D7F80936F007E
:1027A0000895809170008D7F8093700081E0809308
:1027B000B0008091B100887F84608093B100109256
:1027C000B3000895CF93C82F809105018C1307C0E3
:1027D000E8EFF0E0E4918FEF8093050101C0EFEFA7
:1027E0008E2F0E94C21360E08C2FCF910C94F00EBC
:1027F0001F920F920FB60F9211242F933F934F9376
:102800005F936F937F938F939F93AF93BF93EF9358
:10281000FF938091A7039091A803A091A903B09181
:10282000AA03892B8A2B8B2B51F18091A403E09171
:10283000A503F091A6039081892780838091A70347
:102840009091A803A091A903B091AA0318161906A4
:102850001A061B06C4F48091A7039091A803A091C7
:10286000A903B091AA030197A109B1098093A70315
:102870009093A803A093A903B093AA0304C08091E6
:1028800005010E94E213FF91EF91BF91AF919F91DB
:102890008F917F916F915F914F913F912F910F9009
:1028A0000FBE0F901F901895611571058105910558
:1028B00011F00C94B71708954F925F926F927F9228
:1028C000AF92BF92CF92DF92EF92FF920F931F933E
:1028D000CF93DF93CDB7DEB729013A019B01AC015D
:1028E000241935094609570989899A89AB89BC8910
:1028F000BC01CD016A197B098C099D090E94E7166C
:10290000A801970124193509460957090E9425177E
:10291000CA01B9016A0D7B1D8C1D9D1DDF91CF91F0
:102920001F910F91FF90EF90DF90CF90BF90AF90ED
:102930007F906F905F904F90089508950E94D40DFE
:102940000E949D140E947204C6E8DFE00E94DF042A
:102950002097E1F30E94860FF9CF08955058BB27C6
:10296000AA270E94C6140C943B160E942D1638F01C
:102970000E94341620F039F49F3F19F426F40C9489
:102980002A160EF4E095E7FB0C942416E92F0E941A
:102990004C1658F3BA17620773078407950720F09F
:1029A00079F4A6F50C946E160EF4E0950B2EBA2F62
:1029B000A02D0B01B90190010C01CA01A001112445
:1029C000FF27591B99F0593F50F4503E68F11A16F1
:1029D000F040A22F232F342F4427585FF3CF469582
:1029E00037952795A795F0405395C9F77EF41F16A4
:1029F000BA0B620B730B840BBAF09150A1F0FF0F6E
:102A0000BB1F661F771F881FC2F70EC0BA0F621F59
:102A1000731F841F48F4879577956795B795F79549
:102A20009E3F08F0B0CF9395880F08F09927EE0FDE
:102A30009795879508950E942F150C943B160E9438
:102A4000341658F00E942D1640F029F45F3F29F00B
:102A50000C94241651110C946F160C942A160E9493
:102A60004C1668F39923B1F3552391F3951B550B3D
:102A7000BB27AA2762177307840738F09F5F5F4F51
:102A8000220F331F441FAA1FA9F335D00E2E3AF090
:102A9000E0E832D091505040E695001CCAF72BD0A8
:102AA000FE2F29D0660F771F881FBB1F26173707F9
:102AB0004807AB07B0E809F0BB0B802DBF01FF272B
:102AC00093585F4F3AF09E3F510578F00C942416CE
:102AD0000C946F165F3FE4F3983ED4F38695779598
:102AE0006795B795F7959F5FC9F7880F911D9695E4
:102AF000879597F90895E1E0660F771F881FBB1F40
:102B0000621773078407BA0720F0621B730B840BEC
:102B1000BA0BEE1F88F7E09508950E94941568940B
:102B2000B1110C946F1608950E94541688F09F57A7
:102B300098F0B92F9927B751B0F0E1F0660F771FE1
:102B4000881F991F1AF0BA95C9F714C0B13091F0D7
:102B50000E946E16B1E008950C946E16672F782FC0
:102B60008827B85F39F0B93FCCF38695779567959C
:102B7000B395D9F73EF490958095709561957F4F08
:102B80008F4F9F4F0895E89409C097FB3EF49095AE
:102B90008095709561957F4F8F4F9F4F9923A9F036
:102BA000F92F96E9BB279395F695879577956795C5
:102BB000B795F111F8CFFAF4BB0F11F460FF1BC009
:102BC0006F5F7F4F8F4F9F4F16C0882311F096E99C
:102BD00011C0772321F09EE8872F762F05C066234A
:102BE00071F096E8862F70E060E02AF09A95660F03
:102BF000771F881FDAF7880F9695879597F90895BC
:102C0000990F0008550FAA0BE0E8FEEF16161706FD
:102C1000E807F907C0F012161306E407F50798F065
:102C2000621B730B840B950B39F40A2661F0232B7E
:102C3000242B252B21F408950A2609F4A140A695FA
:102C40008FEF811D811D089597F99F6780E870E0DF
:102C500060E008959FEF80EC089500240A94161612
:102C6000170618060906089500240A94121613067A
:102C7000140605060895092E0394000C11F4882308
:102C800052F0BB0F40F4BF2B11F460FF04C06F5F24
:102C90007F4F8F4F9F4F089557FD9058440F551FFA
:102CA00059F05F3F71F04795880F97FB991F61F0CE
:102CB0009F3F79F087950895121613061406551F45
:102CC000F2CF4695F1DF08C0161617061806991FB1
:102CD000F1CF86957105610508940895E894BB27A6
:102CE00066277727CB0197F908950E94001608F40C
:102CF0008FEF08950E948D160C943B160E942D169E
:102D000038F00E94341620F0952311F00C9424160C
:102D10000C942A1611240C946F160E944C1670F312
:102D2000959FC1F3950F50E0551F629FF001729F70
:102D3000BB27F00DB11D639FAA27F00DB11DAA1F7F
:102D4000649F6627B00DA11D661F829F2227B00DCC
:102D5000A11D621F739FB00DA11D621F839FA00D57
:102D6000611D221F749F3327A00D611D231F849FA7
:102D7000600D211D822F762F6A2F11249F575040FE
:102D80009AF0F1F088234AF0EE0FFF1FBB1F661F79
:102D9000771F881F91505040A9F79E3F510580F042
:102DA0000C9424160C946F165F3FE4F3983ED4F312
:102DB000869577956795B795F795E7959F5FC1F7E6
:102DC000FE2B880F911D9695879597F90895DB0145
:102DD0008F939F930E944A17BF91AF91A29F800D3E
:102DE000911DA39F900DB29F900D11240895991BE2
:102DF00079E004C0991F961708F0961B881F7A95F2
:102E0000C9F780950895A1E21A2EAA1BBB1BFD01EC
:102E10000DC0AA1FBB1FEE1FFF1FA217B307E407B9
:102E2000F50720F0A21BB30BE40BF50B661F771F11
:102E3000881F991F1A9469F76095709580959095F1
:102E40009B01AC01BD01CF010895052E97FB1EF437
:102E500000940E943C1757FD07D00E94031707FCFF
:102E600003D04EF40C943C17509540953095219525
:102E70003F4F4F4F5F4F08959095809570956195A6
:102E80007F4F8F4F9F4F0895EE0FFF1F0590F491D6
:102E9000E02D09940E945517A59F900DB49F900DA9
:102EA000A49F800D911D11240895A29FB001B39F8E
:102EB000C001A39F700D811D1124911DB29F700D43
:102EC000811D1124911D08958F929F92AF92BF9200
:102ED000CF92DF92EF92FF92CF93DF93EC01688164
:102EE00079818A819B81611571058105910521F4A4
:102EF00064E279ED8BE597E02DE133EF41E050E0BE
:102F00000E94251749015A019B01AC01A7EAB1E4CF
:102F10000E944A176B017C01ACEEB4EFA50194014D
:102F20000E94C317DC01CB018C0D9D1DAE1DBF1D82
:102F3000B7FF03C00197A109B04888839983AA838A
:102F4000BB83BC01CD019F77DF91CF91FF90EF90C4
:102F5000DF90CF90BF90AF909F908F9008950E9488
:102F60006417089580E091E00E94641708956093CB
:102F70000001709301018093020190930301089571
:102F8000B7FF0C944A170E944A17821B930B0895AF
:042F9000F894FFCFE3
:102F94000100000001FF82008B0093009C00A5004B
:102FA400AF00B900C400D000DC00E900F70006015E
:102FB4001501260137014A015D01720188019F0153
:102FC400B801D201EE010B022A024B026E029302F7
:102FD400BA02E40210033F037003A403DC031704E2
:102FE40055049704DD0427057505C80520067D06EC
:102FF400E0064907B8072D08A9082D09B9094D0AA3
:10300400EA0A900B400CFA0CC00D910E6F0F5A1087
:1030140000010203040506070E0F101112130E0F10
:10302400101112130E0F1011121302040708090ACB
:103034000B0C00000000D007A00771079F0774075E
:103044007C07900700000000D70F2F11770FB50FF2
:06305400490F630F550F48
:00000001FF
